:060000000A128A11122809
:10000800FE00030EF8000408F9000A08FA0083123B
:1000180003137F08FB000A168A15DD2E0A168A15B7
:10002800602E55083B3E84000008203A031D1D2819
:100038001E28372855083E3E84000008203A031D34
:100048002628272837285508413E840000084F3ABB
:10005800031D2F28302837285508443E8400800186
:100068000314800D1E2F55083B3E840000084F3AAC
:10007800031D3F2840285A2855083E3E84000008A2
:100088004F3A031D482849285A285508413E8400FC
:100098000008583A031D512852285A284A30D400DB
:1000A8005508443E8400540880001E2F55083B3EE6
:1000B800840000084F3A031D622863287D285508EC
:1000C8003E3E840000084F3A031D6B286C287D28AB
:1000D8005508413E84000008203A031D74287528FD
:1000E8007D284830D4005508443E840054088000D8
:1000F8001E2F55083B3E840000084F3A031D8528F3
:100108008628A02855083E3E84000008203A031D92
:100118008E288F28A0285508413E84000008583AA8
:10012800031D97289828A0284230D4005508443E3B
:100138008400540880001E2F55083B3E84000008A8
:100148004F3A031DA828A928C32855083E3E840015
:100158000008203A031DB128B228C3285508413E9B
:1001680084000008203A031DBA28BB28C328403061
:10017800D4005508443E8400540880001E2F5508BA
:100188003B3E84000008203A031DCB28CC28E628F3
:1001980055083E3E840000084F3A031DD428D52850
:1001A800E6285508413E84000008583A031DDD281A
:1001B800DE28E6280A30D4005508443E8400540856
:1001C80080001E2F55083B3E84000008203A031D7E
:1001D800EE28EF28092955083E3E840000084F3ACA
:1001E800031DF728F82809295508413E840000080E
:1001F800203A031D0029012909290830D40055088F
:10020800443E8400540880001E2F55083B3E84005D
:100218000008203A031D112912292C2955083E3EB1
:1002280084000008203A031D1A291B292C29550887
:10023800413E84000008583A031D232924292C290B
:100248000230D4005508443E8400540880001E2F14
:1002580055083B3E840000084F3A031D34293529D0
:100268004F2955083E3E84000008583A031D3D2991
:100278003E294F295508413E840000084F3A031D86
:10028800462947294F295130D4005508443E840057
:10029800540880001E2F55083B3E840000084F3A42
:1002A800031D57295829722955083E3E8400000825
:1002B800583A031D6029612972295508413E840076
:1002C8000008203A031D69296A2972295030D40090
:1002D8005508443E8400540880001E2F55083B3EB4
:1002E800840000084F3A031D7A297B29952955086F
:1002F8003E3E84000008203A031D8329842995295D
:100308005508413E840000084F3A031D8C298D2969
:1003180095294130D4005508443E84005408800093
:100328001E2F55083B3E840000084F3A031D9D29A7
:100338009E29B82955083E3E84000008203A031D2E
:10034800A629A729B8295508413E84000008203A63
:10035800031DAF29B029B8294030D4005508443EC0
:100368008400540880001E2F55083B3E8400000876
:10037800203A031DC029C129DB2955083E3E8400C7
:100388000008583A031DC929CA29DB295508413EE6
:10039800840000084F3A031DD229D329DB291130E4
:1003A800D4005508443E8400540880001E2F550888
:1003B8003B3E84000008203A031DE329E429FE2976
:1003C80055083E3E84000008583A031DEC29ED29E3
:1003D800FE295508413E84000008203A031DF529EE
:1003E800F629FE291030D4005508443E84005408EC
:1003F80080001E2F55083B3E84000008203A031D4C
:10040800062A072A202A55083E3E84000008203A7A
:10041800031D0F2A102A202A5508413E840000088F
:100428004F3A031D182A192A202A5508443E8400E9
:1004380080010314800D1E2F55083B3E84000008E0
:100448004F3A031D282A292A432A55083E3E84008C
:100458000008583A031D312A322A432A5508413EDA
:1004680084000008583A031D3A2A3B2A432A52308E
:10047800D4005508443E8400540880001E2F5508B7
:100488003B3E840000084F3A031D4B2A4C2A662A3B
:1004980055083E3E84000008583A031D542A552A40
:1004A800662A5508413E84000008203A031D5D2A4B
:1004B8005E2A662A5030D4005508443E8400540809
:1004C80080001E2F55083B3E840000084F3A031D4C
:1004D8006E2A6F2A892A55083E3E84000008203A71
:1004E800031D772A782A892A5508413E8400000886
:1004F800583A031D802A812A892A4230D400550897
:10050800443E8400540880001E2F55083B3E84005A
:1005180000084F3A031D912A922AAC2A55083E3EFC
:1005280084000008203A031D9A2A9B2AAC2A550801
:10053800413E84000008203A031DA32AA42AAC2ABD
:100548004030D4005508443E8400540880001E2FD3
:1005580055083B3E84000008203A031DB42AB52AFA
:10056800CF2A55083E3E84000008583A031DBD2A8C
:10057800BE2ACF2A5508413E84000008583A031D78
:10058800C62AC72ACF2A1230D4005508443E840010
:10059800540880001E2F55083B3E84000008203A6E
:1005A800031DD72AD82AF22A55083E3E840000089F
:1005B800583A031DE02AE12AF22A5508413E8400F0
:1005C8000008203A031DE92AEA2AF22A1030D4004A
:1005D8005508443E8400540880001E2F55083B3EB1
:1005E80084000008203A031DFA2AFB2A152B550817
:1005F8003E3E84000008203A031D032B042B152BD4
:100608005508413E84000008583A031D0C2B0D2B59
:10061800152B0230D4005508443E8400540880004D
:100628001E2F55083B3E84000008583A031D1D2B19
:100638001E2B382B55083E3E840000084F3A031DF8
:10064800262B272B382B5508413E840000084F3AAB
:10065800031D2F2B302B382B8930D4005508443EEE
:100668008400540880001E2F55083B3E8400000873
:10067800583A031D402B412B5B2B55083E3E840006
:1006880000084F3A031D492B4A2B5B2B5508413E66
:1006980084000008203A031D522B532B5B2B883013
:1006A800D4005508443E8400540880001E2F550885
:1006B8003B3E84000008583A031D632B642B7E2BB5
:1006C80055083E3E84000008203A031D6C2B6D2B14
:1006D8007E2B5508413E840000084F3A031D752BB8
:1006E800762B7E2B8130D4005508443E8400540874
:1006F80080001E2F55083B3E84000008583A031D11
:10070800862B872BA12B55083E3E84000008203AF3
:10071800031D8F2B902BA12B5508413E8400000808
:10072800203A031D982B992BA12B8030D400550813
:10073800443E8400540880001E2F55083B3E840028
:100748000008203A031DA92BAA2BC42B55083E3EAE
:10075800840000084F3A031DB22BB32BC42B550855
:10076800413E840000084F3A031DBB2BBC2BC42B11
:100778000930D4005508443E8400540880001E2FD8
:1007880055083B3E84000008203A031DCC2BCD2B96
:10079800E72B55083E3E840000084F3A031DD52B31
:1007A800D62BE72B5508413E84000008203A031D4C
:1007B800DE2BDF2BE72B0830D4005508443E84009D
:1007C800540880001E2F55083B3E84000008203A3C
:1007D800031DEF2BF02B092C55083E3E8400000822
:1007E800203A031DF82BF92B092C5508413E8400AB
:1007F80000084F3A031D012C022C092C5508443ED1
:10080800840080010314800D1E2F55083B3E840090
:100818000008583A031D112C122C2C2C55083E3E6A
:10082800840000084F3A031D1A2C1B2C2C2C550849
:10083800413E84000008583A031D232C242C2C2CFC
:100848008A30D4005508443E8400540880001E2F86
:1008580055083B3E84000008583A031D342C352CBB
:100868004F2C55083E3E840000084F3A031D3D2C8E
:100878003E2C4F2C5508413E84000008203A031DA9
:10088800462C472C4F2C8830D4005508443E840011
:10089800540880001E2F55083B3E84000008583A33
:1008A800031D572C582C722C55083E3E8400000816
:1008B800203A031D602C612C722C5508413E84009F
:1008C8000008583A031D692C6A2C722C8230D40017
:1008D8005508443E8400540880001E2F55083B3EAE
:1008E80084000008583A031D7A2C7B2C952C550857
:1008F8003E3E84000008203A031D832C842C952C4E
:100908005508413E84000008203A031D8C2C8D2C8C
:10091800952C8030D4005508443E8400540880004B
:100928001E2F55083B3E84000008203A031D9D2CCD
:100938009E2CB82C55083E3E840000084F3A031DF3
:10094800A62CA72CB82C5508413E84000008583A1C
:10095800031DAF2CB02CB82C0A30D4005508443EE7
:100968008400540880001E2F55083B3E8400000870
:10097800203A031DC02CC12CDB2C55083E3E8400B8
:1009880000084F3A031DC92CCA2CDB2C5508413EE0
:1009980084000008203A031DD22CD32CDB2C08300D
:1009A800D4005508443E8400540880001E2F550882
:1009B8003B3E84000008203A031DE32CE42CFE2C67
:1009C80055083E3E84000008203A031DEC2CED2C0F
:1009D800FE2C5508413E84000008583A031DF52CAA
:1009E800F62CFE2C0230D4005508443E84005408EE
:1009F80080001E2F55083B3E84000008583A031D0E
:100A0800062D072D212D55083E3E84000008583A32
:100A1800031D0F2D102D212D5508413E840000087F
:100A28004F3A031D182D192D212D9130D40055084A
:100A3800443E8400540880001E2F55083B3E840025
:100A48000008583A031D292D2A2D442D55083E3EED
:100A580084000008583A031D322D332D442D5508C3
:100A6800413E84000008203A031D3B2D3C2D442DB7
:100A78009030D4005508443E8400540880001E2F4E
:100A880055083B3E84000008583A031D4C2D4D2D57
:100A9800672D55083E3E84000008203A031D552D59
:100AA800562D672D5508413E840000084F3A031D16
:100AB8005E2D5F2D672D8130D4005508443E84009B
:100AC800540880001E2F55083B3E84000008583A01
:100AD800031D6F2D702D8A2D55083E3E8400000899
:100AE800203A031D782D792D8A2D5508413E840022
:100AF8000008203A031D812D822D8A2D8030D400D4
:100B08005508443E8400540880001E2F55083B3E7B
:100B180084000008203A031D922D932DAD2D550811
:100B28003E3E84000008583A031D9B2D9C2DAD2D98
:100B38005508413E840000084F3A031DA42DA52DF9
:100B4800AD2D1130D4005508443E8400540880006F
:100B58001E2F55083B3E84000008203A031DB52D82
:100B6800B62DD02D55083E3E84000008583A031D86
:100B7800BE2DBF2DD02D5508413E84000008203AD7
:100B8800031DC72DC82DD02D1030D4005508443E64
:100B98008400540880001E2F55083B3E840000083E
:100BA800203A031DD82DD92DF22D55083E3E84003C
:100BB8000008203A031DE12DE22DF22D5508413E93
:100BC800840000084F3A031DEA2DEB2DF22D55083D
:100BD800443E840080010314800D1E2F55083B3EBF
:100BE80084000008583A031DFA2DFB2D152E5508D0
:100BF8003E3E84000008583A031D032E042E152E8D
:100C08005508413E84000008583A031D0C2E0D2E4D
:100C1800152E9230D4005508443E840054088000B4
:100C28001E2F55083B3E84000008583A031D1D2E10
:100C38001E2E382E55083E3E84000008583A031DE3
:100C4800262E272E382E5508413E84000008203ACB
:100C5800031D2F2E302E382E9030D4005508443ED8
:100C68008400540880001E2F55083B3E840000086D
:100C7800583A031D402E412E5B2E55083E3E8400F7
:100C88000008203A031D492E4A2E5B2E5508413E86
:100C980084000008583A031D522E532E5B2E8230D2
:100CA800D4005508443E8400540880001E2F55087F
:100CB8003B3E84000008583A031D632E642E7E2EA6
:100CC80055083E3E84000008203A031D6C2E6D2E08
:100CD8007E2E5508413E84000008203A031D752EDB
:100CE800762E7E2E8030D4005508443E8400540869
:100CF80080001E2F55083B3E84000008203A031D43
:100D0800862E872EA12E55083E3E84000008583AAC
:100D1800031D8F2E902EA12E5508413E84000008F9
:100D2800583A031D982E992EA12E1230D40055083A
:100D3800443E8400540880001E2F55083B3E840022
:100D48000008203A031DA92EAA2EC42E55083E3E9F
:100D580084000008583A031DB22EB32EC42E55083D
:100D6800413E84000008203A031DBB2EBC2EC42E31
:100D78001030D4005508443E8400540880001E2FCB
:100D880055083B3E84000008203A031DCC2ECD2E8A
:100D98001E2F55083E3E84000008203A031DD52E1C
:100DA800D62E1E2F5508413E84000008583A031DD0
:100DB800DE2EDF2E1E2F0230D4005508443E84005C
:100DC800540880001E2F1E2F1E2F1E2F1E2F1E2F71
:100DD8001E2F1E2F1E2F1E2F1E2F1E2F1E2F1E2FA3
:100DE8001E2F1E2F1E2F1E2F1E2F1E2F1E2F1E2F93
:100DF8001E2F1E2F1E2F1E2F1E2F1E2F1E2F1E2F83
:100E08001E2F1E2F1E2F1E2F1E2F1E2F1E2F1E2F72
:100E18001E2F1E2F1E2F1E2F1E2F1E2F1E2F1E2F62
:100E28001E2F1E2F1E2F1E2F1E2F1E2F1E2F1E2F52
:100E38001E2F1E2F44080A168A1171210A128A11C0
:100E48008312031345080A168A11F7210A128A1118
:100E58008312031346080A168A117D220A128A1180
:100E6800013083120313D5070318D60A0030D607BA
:100E78005608803AFF0080307F02031D452F03305B
:100E88005502031C482F4B2F0A168A11BB2C4C2FD6
:100E9800080083120313D00109305002031C552F98
:100EA800562F582F782F782F5008D6005607203EF7
:100EB8008400003083138000840A003080005008CA
:100EC800D6005607A03E840000308000840A003017
:100ED80080000130D6005608D00709305002031CA4
:100EE800762F772F582F782FDB01DC015C08803AAA
:100EF800FF0080307F02031D832F03305B02031C39
:100F0800862F872F892FE22FE22F83120313DD010B
:100F1800DE015E08803AFF0080307F02031D962FB5
:100F280003305D02031C992F9A2F9C2FCC2FCC2FB6
:100F3800203083120313D6000330D7005708D2009D
:100F48005B080A168A15A9260A128A118312031346
:100F5800D8003B305807D9005D085907DA005A080D
:100F680084005608831380000130DD070318DE0A69
:100F78000030DE075E08803AFF0080307F02031DE4
:100F8800C72F03305D02031CCA2FCB2F9C2FCC2FF9
:100F9800013083120313DB070318DC0A0030DC0777
:100FA8005C08803AFF0080307F02031DDD2F03308C
:100FB8005B02031CE02FE12F892FE22F763083128A
:100FC80003139200B43083160313920083120313A1
:100FD8008C10831603138C14C530831203139000EE
:100FE800E230831603138F00831203138C138316C6
:060FF80003138C17080032
:10100200103083160313850086018701FF308800A4
:10101200890183120313860189010A168A15F926AA
:101022000A128A151030831603178500860189017A
:10103200FF30880083120313D101CF01D001103099
:101042008316031390008B178D30831203178800C9
:10105200083089000A128A114D270A128A150A12CB
:101062008A153C200A128A1583120313E3006308CF
:10107200CE000B17080083120313DA01DB01E10132
:10108200E2016208803AFF0080307F02031D4B2894
:1010920003306102031C4E284F28512807290729D3
:1010A200033083120313D6005608D20061080A16D1
:1010B2008A15A9260A128A15013E3B3E8400831333
:1010C200000883120313D7000330D8005808D20057
:1010D20061080A168A15A9260A128A153B3E84005F
:1010E20083130008831203135706031D79287A28F5
:1010F200B1280330D6005608D20061080A168A15B4
:10110200A9260A128A15023E3B3E84008313000878
:1011120083120313D7000330D8005808D2006108A5
:101122000A168A15A9260A128A153B3E84008313E1
:101132000008831203135706031DA028A128B12813
:101142000330D6005608D20061080A168A15A9266D
:101152000A128A153B3E84008313000894299429BD
:101162008312031361083E3E84000008D600610822
:101172003B3E840000085606031DC028C128D5281E
:101182006108413E84000008D60061083B3E8400AD
:1011920000085606031DCE28CF28D52861083B3EFD
:1011A20084000008942994293F083B06031DDA288D
:1011B200DB28E42843083B06031DE028E128E42855
:1011C2003B08942994293D083F06031DE928EA2893
:1011D200F3283D084106031DEF28F028F3283D08B7
:1011E200942994290130E1070318E20A0030E2074A
:1011F2006208803AFF0080307F02031D022903301B
:101202006102031C052906295128072983120313A9
:10121200DD01DE015E08803AFF0080307F02031D9F
:10122200142903305D02031C172918291A297D2964
:101232007D2983120313DF01E0016008803AFF0079
:1012420080307F02031D272903305F02031C2A29F5
:101252002B292D2967296729033083120313D6000E
:101262005608D2005D080A168A15A9260A128A159E
:1012720083120313D7003B305707D8005F08580783
:10128200D9005908840083130008203A031D4A2913
:101292004B2953290130DA070318DB0A0030DB0738
:1012A200532953290130DF070318E00A0030E00711
:1012B2006008803AFF0080307F02031D62290330FC
:1012C2005F02031C652966292D29672901308312D3
:1012D2000313DD070318DE0A0030DE075E08803ADA
:1012E200FF0080307F02031D782903305D02031C5A
:1012F2007B297C291A297D29831203135B085A044E
:10130200031D842985298D296430D6005608DC0006
:101312005C089429942994292030D6005608DC00D0
:101322005C089429942908000A128A1501200A12DD
:101332008A1501300A168A1577260A128A15023092
:101342000A168A1577260A128A1506300A168A158F
:1013520077260A128A150C300A168A1577260A127F
:101362008A1538300A168A1577260A128A150A163D
:101372008A1534260A128A1500300A168A11DE20CE
:101382000A128A1521300A168A153A270A128A1574
:1013920014300A168A11DE200A128A1501300A1642
:1013A2008A153A270A128A15003083120313D500D0
:1013B2000030D4002730D3001030D2000A168A152C
:1013C20064270A128A1583120313E501E6016608EF
:1013D200803AFF0080307F02031DF1290F30650241
:1013E200031CF429F529F729122A122A0A168A154A
:1013F2004A260A128A15013083120313E5070318DD
:10140200E60A0030E6076608803AFF0080307F0275
:10141200031D0D2A0F306502031C102A112AF72919
:10142200122A003083120313D5000030D400753025
:10143200D3003030D2000A168A1564270A128A15A0
:101442000A168A1534260A128A1500300A168A11DB
:10145200DE200A128A15B4300A168A153A270A12B1
:101462008A1514300A168A11DE200A128A15733080
:101472000A168A153A270A128A15003083120313B4
:10148200D5000030D400EA30D3006030D2000A1612
:101492008A1564270A128A150A168A1534260A1230
:1014A2008A1500300A168A11DE200A128A15A43023
:1014B2000A168A153A270A128A1514300A168A1150
:1014C200DE200A128A15CE300A168A153A270A1227
:1014D2008A15003083120313D5000030D400753012
:1014E200D3003030D2000A168A1564270A128A15F0
:1014F200003083120313B500B400B300E4006408A3
:10150200B2000030B900B800B700E4006408B600C9
:10151200BA010A168A11CA230A128A15CB2A831221
:101522000313CF08031D962A972AA92A0A168A1599
:1015320034260A128A1500300A168A11DE200A128F
:101542008A1584300A168A153A270A128A15BB2A86
:101552000A168A1534260A128A1500300A168A11CA
:10156200DE200A128A1594300A168A153A270A12C0
:101572008A15BB2A0A168A15C3260A128A150A1266
:101582008A153C200A128A1583120313E4006408A8
:10159200CE00CB2A831203134E08203A0319D22A13
:1015A200D32A902AD42A4E08583A031DD92ADA2A75
:1015B200FD2A0A168A11AC250A128A150A168A15FC
:1015C20034260A128A1500300A168A11DE200A12FF
:1015D2008A1540300A168A153A270A128A151430DB
:1015E2000A168A11DE200A128A1551300A168A1545
:1015F2003A270A128A15FD2A831203134E084F3A1C
:10160200031D042B052B532B0A168A11AC250A1233
:101612008A150A168A1534260A128A1500300A1605
:101622008A11DE200A128A1540300A168A153A27D4
:101632000A128A1514300A168A11DE200A128A1535
:1016420062300A168A153A270A128A15532B532B2F
:101652000A128A155C250A128A150A168A15962715
:101662000A128A150A168A1534260A128A150030B9
:101672000A168A11DE200A128A1540300A168A15C5
:101682003A270A128A1514300A168A11DE200A1223
:101692008A15C3300A168A153A270A128A152E2B82
:1016A2002E2B532B831203134E08643A03195A2B21
:1016B2005B2B292B5D2B5D2B5D2B0A128A111228C5
:1016C200831203133208013A031D682B692B9B2BEB
:1016D2003B08583A03196E2B6F2B762B3B084F3A77
:1016E200031D742B752B822B762BCF08031D7A2BAF
:1016F2007B2B7D2BCF019B2BCF010314CF0D9B2B7B
:101702009B2B0A168A1103230A128A150A168A11BA
:10171200A0240A128A1583120313CF08031D922BE9
:10172200932B972BCF010314CF0D9B2BCF019B2B18
:101732009B2B9B2B3308013A031DA02BA12BD32BF0
:101742003C08583A0319A62BA72BAE2B3C084F3A5C
:10175200031DAC2BAD2BBA2BAE2BCF08031DB22B26
:10176200B32BB52BCF01D32BCF010314CF0DD32B2A
:10177200D32B0A168A1103230A128A150A168A1112
:10178200A0240A128A1583120313CF08031DCA2B41
:10179200CB2BCF2BCF010314CF0DD32BCF01D32BC8
:1017A200D32BD32B3408013A031DD82BD92B0B2C66
:1017B2003D08583A0319DE2BDF2BE62B3D084F3A42
:1017C200031DE42BE52BF22BE62BCF08031DEA2B9E
:1017D200EB2BED2BCF010B2CCF010314CF0D0B2CD8
:1017E2000B2C0A168A1103230A128A150A168A1169
:1017F200A0240A128A1583120313CF08031D022C98
:10180200032C072CCF010314CF0D0B2CCF010B2C73
:101812000B2C0B2C3508013A031D102C112C432CD8
:101822003E08583A0319162C172C1E2C3E084F3A24
:10183200031D1C2C1D2C2A2C1E2CCF08031D222C10
:10184200232C252CCF01432CCF010314CF0D432C85
:10185200432C0A168A1103230A128A150A168A11C0
:10186200A0240A128A1583120313CF08031D3A2CEF
:101872003B2C3F2CCF010314CF0D432CCF01432C23
:10188200432C432C3608013A031D482C492C7B2C4F
:101892003F08583A03194E2C4F2C562C3F084F3A0A
:1018A200031D542C552C622C562CCF08031D5A2C88
:1018B2005B2C5D2CCF017B2CCF010314CF0D7B2C35
:1018C2007B2C0A168A1103230A128A150A168A1118
:1018D200A0240A128A1583120313CF08031D722C47
:1018E200732C772CCF010314CF0D7B2CCF017B2CD3
:1018F2007B2C7B2C3708013A031D802C812CB32CC6
:101902004008583A0319862C872C8E2C40084F3AEF
:10191200031D8C2C8D2C9A2C8E2CCF08031D922CFF
:10192200932C952CCF01B32CCF010314CF0DB32CE4
:10193200B32C0A168A1103230A128A150A168A116F
:10194200A0240A128A1583120313CF08031DAA2C9E
:10195200AB2CAF2CCF010314CF0DB32CCF01B32C82
:10196200B32CB32C3808013A031DB82CB92CEB2C3C
:101972004108583A0319BE2CBF2CC62C41084F3AD5
:10198200031DC42CC52CD22CC62CCF08031DCA2C77
:10199200CB2CCD2CCF01EB2CCF010314CF0DEB2C94
:1019A200EB2C0A168A1103230A128A150A168A11C7
:1019B200A0240A128A1583120313CF08031DE22CF6
:1019C200E32CE72CCF010314CF0DEB2CCF01EB2C32
:1019D200EB2CEB2C3908013A031DF02CF12C232DB2
:1019E2004208583A0319F62CF72CFE2C42084F3ABB
:1019F200031DFC2CFD2C0A2DFE2CCF08031D022DED
:101A0200032D052DCF01232DCF010314CF0D232D3F
:101A1200232D0A168A1103230A128A150A168A111D
:101A2200A0240A128A1583120313CF08031D1A2D4C
:101A32001B2D1F2DCF010314CF0D232DCF01232DDD
:101A4200232D232D3A08013A031D282D292D5B2D24
:101A52004308583A03192E2D2F2D362D43084F3A9D
:101A6200031D342D352D422D362DCF08031D3A2D61
:101A72003B2D3D2DCF015B2DCF010314CF0D5B2DEF
:101A82005B2D0A168A1103230A128A150A168A1175
:101A9200A0240A128A1583120313CF08031D522DA4
:101AA200532D572DCF010314CF0D5B2DCF015B2D8D
:101AB2005B2D5B2D08008B13831203131211101080
:101AC2000C30970007309200BC308316031392004B
:101AD20032308312031395000030D5000030D40059
:101AE2000F30D300A030D2000A168A1564270A12DA
:101AF2008A15BC308316031392003230831203130B
:101B020095000030D5000030D4000F30D300A03053
:101B1200D2000A168A1564270A128A15B230831671
:101B22000313920032308312031395000030D50064
:101B32000030D4000F30D300A030D2000A168A152C
:101B420064270A128A159E308316031392006430AA
:101B52008312031395000030D5000030D4000F30FB
:101B6200D300A030D2000A168A1564270A128A15F9
:101B72009E30831603139200643083120313950080
:101B82000030D5000030D4000F30D300A030D20096
:101B92000A168A1564270A128A15B23083160313AD
:101BA200920032308312031395000030D5000030CA
:101BB200D4000F30D300A030D2000A168A15642751
:101BC2000A128A15BC308316031392003230831234
:101BD200031395000030D5000030D4000F30D3003D
:101BE200A030D2000A168A1564270A128A15D33049
:101BF20083160313920032308312031395000030D0
:101C0200D5000030D4000F30D300A030D2000A1625
:101C12008A1564270A128A15EE308316031392007E
:101C220032308312031395000030D5000030D40007
:101C32000F30D300A030D2000A168A1564270A1288
:101C42008A15EE3083160313920032308312031387
:101C520095000030D5000030D4000F30D300A03002
:101C6200D2000A168A1564270A128A15D3308316FF
:101C72000313920032308312031395000030D50013
:101C82000030D4000F30D300A030D2000A168A15DB
:101C920064270A128A15BC3083160313920032306D
:101CA2008312031395000030D5000030D4000F30AA
:101CB200D300A030D2000A168A1564270A128A15A8
:101CC200BC30831603139200323083120313950043
:101CD2000030D5000030D4000F30D300A030D20045
:101CE2000A168A1564270A128A15D330831603133B
:101CF200920032308312031395000030D500003079
:101D0200D4000730D300D030D2000A168A156427D7
:101D12000A128A15D33083160313920032308312CB
:101D2200031395000030D5000030D4001F30D300DB
:101D32004030D2000A168A1564270A128A15BC306E
:101D4200831603139200323083120313950000307E
:101D5200D5000030D4000F30D300A030D2000A16D4
:101D62008A1564270A128A15BC308316031392005F
:101D720032308312031395000030D5000030D400B6
:101D82000F30D300A030D2000A168A1564270A1237
:101D92008A15B23083160313920032308312031372
:101DA20095000030D5000030D4000F30D300A030B1
:101DB200D2000A168A1564270A128A159E308316E3
:101DC2000313920032308312031395000030D500C2
:101DD2000030D4000F30D300A030D2000A168A158A
:101DE20064270A128A159E3083160313920032303A
:101DF2008312031395000030D5000030D4000F3059
:101E0200D300A030D2000A168A1564270A128A1556
:101E1200B2308316031392003230831203139500FB
:101E22000030D5000030D4000F30D300A030D200F3
:101E32000A168A1564270A128A15BC308316031300
:101E4200920032308312031395000030D500003027
:101E5200D4000F30D300A030D2000A168A156427AE
:101E62000A128A15D330831603139200323083127A
:101E7200031395000030D5000030D4000F30D3009A
:101E8200A030D2000A168A1564270A128A15EE308B
:101E9200831603139200323083120313950000302D
:101EA200D5000030D4000F30D300A030D2000A1683
:101EB2008A1564270A128A15EE30831603139200DC
:101EC20032308312031395000030D5000030D40065
:101ED2000F30D300A030D2000A168A1564270A12E6
:101EE2008A15D33083160313920032308312031300
:101EF20095000030D5000030D4000F30D300A03060
:101F0200D2000A168A1564270A128A15BC30831673
:101F12000313920032308312031395000030D50070
:101F22000030D4000F30D300A030D2000A168A1538
:101F320064270A128A15D3308316031392003230B3
:101F42008312031395000030D5000030D4000F3007
:101F5200D300A030D2000A168A1564270A128A1505
:101F6200EE3083160313920032308312031395006E
:101F72000030D5000030D4000730D300D030D2007A
:101F82000A168A1564270A128A15EE30831603137D
:101F9200920032308312031395000030D5000030D6
:101FA200D4001F30D3004030D2000A168A156427AD
:101FB2000A128A1583120313970176309200B43005
:101FC2008316031392008312031395018C10831658
:101FD20003138C14C530831203139000E23083166E
:101FE20003138F00831203138C13831603138C17AE
:101FF2000A168A150B260A128A158B17080010304A
:102002008A000408840A820700345034523420348F
:102012003234383420342D3420346D3454346F3417
:1020220075346334683420347734693474346834F2
:102032002034543469346334203454346134633486
:10204200203454346F346534003443347934743476
:1020520072346F346E3420345434653463346834EB
:102062006E346F346C346F3467346934653473346E
:102072002034533464346E3420344234683464344B
:10208200203420342034003463346F346E346734A7
:1020920072346134743475346C3461347434693438
:1020A2006F346E342134203400342A342A347034AC
:1020B2006C34613479346534723431342034773499
:1020C20069346E3473342A342A3400342A342A347C
:1020D20070346C346134793465347234323420347F
:1020E200773469346E3473342A342A3400345034E9
:1020F2006C346134793465347234203432342034AF
:102102003D34203467347234653465346E340034BF
:1021120050346C346134793465347234203431345F
:102122002734733420347434753472346E3400348A
:1021320050346C346134793465347234203432343E
:102142002734733420347434753472346E3400346A
:1021520050346C346134793465347234203431341F
:10216200203473347434613472347434733400340C
:1021720050346C34613479346534723420343134FF
:1021820020343D34203472346534643400342A34CB
:102192002A342A3464347234613477342A342A3447
:1021A2002A3400346634693472347334743400343B
:1021BC0083120313DC0010305C020318E628E728B6
:1021CC00EF285C08803E0A168A1577260A168A11B3
:1021DC00FE28831203135C08EC3EDB005B08DC007A
:1021EC005C08C03E0A168A1577260A168A11FE2844
:1021FC0008000130F000700883120313D007093077
:10220C005002031C0A290B290E29D0010E290E2974
:10221C00D008031D1229132917290830831203171C
:10222C00890003135008013A031D1D291E29222978
:10223C00093083120317890003135008023A031D57
:10224C00282929292D290A30831203178900031301
:10225C005008033A031D3329342938290B308312D3
:10226C000317890003135008043A031D3E293F2924
:10227C0043290C3083120317890003135008053AC5
:10228C00031D49294A294E290D3083120317890051
:10229C0003135008063A031D5429552959290E30A9
:1022AC0083120317890003135008073A031D5F2993
:1022BC00602964290F308312031789000313500817
:1022CC00083A031D6A296B297029063083120317FB
:1022DC0089007029080083120313D300531C77293B
:1022EC0078297A2987147B29871087158711530839
:1022FC00D20001300310D20CFF3E031D8029521C6A
:10230C00882989298B2987148C298710871587118F
:10231C005308D20002300310D20CFF3E031D91294A
:10232C00521C99299A299C2987149D298710871555
:10233C0087115308D20003300310D20CFF3E031D4B
:10234C00A229521CAA29AB29AD298714AE298710C2
:10235C00871587115308D20004300310D20CFF3EAE
:10236C00031DB329521CBB29BC29BE298714BF29C4
:10237C008710871587115308D20005300310D20C33
:10238C00FF3E031DC429521CCC29CD29CF2987140B
:10239C00D0298710871587115308D20006300310F7
:1023AC00D20CFF3E031DD529521CDD29DE29E02964
:1023BC008714E1298710871587115308D20007303D
:1023CC000310D20CFF3E031DE629521CEE29EF2907
:1023DC00F1298714F2298710871587110716071220
:1023EC00080083120313D300531CFD29FE29002A75
:1023FC008516012A8512071407105308D2000130E4
:10240C000310D20CFF3E031D062A521C0E2A0F2A63
:10241C00112A8516122A8512071407105308D200A8
:10242C0002300310D20CFF3E031D172A521C1F2A28
:10243C00202A222A8516232A8512071407105308EE
:10244C00D20003300310D20CFF3E031D282A521C6D
:10245C00302A312A332A8516342A8512071407109C
:10246C005308D20004300310D20CFF3E031D392A4E
:10247C00521C412A422A442A8516452A85120714E1
:10248C0007105308D20005300310D20CFF3E031D79
:10249C004A2A521C522A532A552A8516562A851224
:1024AC00071407105308D20006300310D20CFF3E5D
:1024BC00031D5B2A521C632A642A662A8516672A26
:1024CC008512071407105308D20007300310D20CE2
:1024DC00FF3E031D6C2A521C742A752A772A851616
:1024EC00782A8512071407100915091108008312A0
:1024FC000313D300531C832A842A862A8514872A23
:10250C008510851585115308D20001300310D20CAB
:10251C00FF3E031D8C2A521C942A952A972A851457
:10252C00982A8510851585115308D20002300310A6
:10253C00D20CFF3E031D9D2A521CA52AA62AA82AAE
:10254C008514A92A8510851585115308D2000330EE
:10255C000310D20CFF3E031DAE2A521CB62AB72A1A
:10256C00B92A8514BA2A8510851585115308D2000D
:10257C0004300310D20CFF3E031DBF2A521CC72A85
:10258C00C82ACA2A8514CB2A8510851585115308AB
:10259C00D20005300310D20CFF3E031DD02A521C72
:1025AC00D82AD92ADB2A8514DC2A851085158511B1
:1025BC005308D20006300310D20CFF3E031DE12A53
:1025CC00521CE92AEA2AEC2A8514ED2A8510851575
:1025DC0085115308D20007300310D20CFF3E031DA7
:1025EC00F22A521CFA2AFB2AFD2A8514FE2A85108F
:1025FC008515851105150511080083120313CF08E5
:10260C00031D092B0A2B662B3208013A031D0F2BD5
:10261C00102B142B5830D2005208BB003308013A4F
:10262C00031D192B1A2B1E2B5830D2005208BC003C
:10263C003408013A031D232B242B282B5830D200AD
:10264C005208BD003508013A031D2D2B2E2B322BC1
:10265C005830D2005208BE003608013A031D372B01
:10266C00382B3C2B5830D2005208BF003708013AA7
:10267C00031D412B422B462B5830D2005208C00070
:10268C003808013A031D4B2B4C2B502B5830D200E1
:10269C005208C1003908013A031D552B562B5A2BF1
:1026AC005830D2005208C2003A08013A031D5F2B81
:1026BC00602BC92B5830D2005208C300C92BC92B30
:1026CC004F08013A031D6B2B6C2BC92B3208013AB6
:1026DC00031D712B722B762B4F30D2005208BB008E
:1026EC003308013A031D7B2B7C2B802B4F30D200FF
:1026FC005208BC003408013A031D852B862B8A2B0B
:10270C004F30D2005208BD003508013A031D8F2B03
:10271C00902B942B4F30D2005208BE003608013A51
:10272C00031D992B9A2B9E2B4F30D2005208BF00C1
:10273C003708013A031DA32BA42BA82B4F30D20032
:10274C005208C0003808013A031DAD2BAE2BB22B3A
:10275C004F30D2005208C1003908013A031DB72B83
:10276C00B82BBC2B4F30D2005208C2003A08013AA9
:10277C00031DC12BC22BC92B4F30D2005208C300F2
:10278C00C92BC92BC92B08008B13831203131211ED
:10279C0010100C30970007309200EE3083160313A4
:1027AC00920032308312031395000030D5000030B4
:1027BC00D4000730D300D030D2000A168A15642713
:1027CC000A168A11D3308316031392003230831207
:1027DC00031395000030D5000030D4000730D3002F
:1027EC00D030D2000A168A1564270A168A11BD3019
:1027FC008316031392006430831203139500003088
:10280C00D5000030D4000730D300D030D2000A16E7
:10281C008A1564270A168A11B230831603139200A4
:10282C0064308312031395000030D5000030D400BF
:10283C000730D300D030D2000A168A1564270A1646
:10284C008A119E30831603139200323083120313C5
:10285C0095000030D5000030D4000730D300D030C4
:10286C00D2000A168A1564270A168A118D3083162F
:10287C000313920032308312031395000030D500FD
:10288C000030D4000730D300D030D2000A168A159D
:10289C0064270A168A117D30831603139200323096
:1028AC008312031395000030D5000030D40007309C
:1028BC00D300D030D2000A168A1564270A168A1162
:1028CC007630831603139200323083120313950073
:1028DC000030D5000030D4000F30D300A030D2002F
:1028EC000A168A1564270A168A1183120313970194
:1028FC0076309200B43083160313920083120313C4
:10290C0095018C10831603138C14C530831203139A
:10291C009000E230831603138F00831203138C1381
:10292C00831603138C170A168A150B260A168A119E
:10293C008B170800831203138716071787170510C8
:10294C0085130513D501D6015608803AFF00803057
:10295C007F02031DB32C03305502031CB62CB72C7D
:10296C00BB2C0A128A114C2FB72C83120313440868
:10297C000A168A1171210A168A118312031345084B
:10298C000A168A11F7210A168A11831203134608B4
:10299C000A168A117D220A168A118312031355080E
:1029AC003B3E8400831300084F3A031DDE2CDF2CC2
:1029BC00FB2C55083E3E840000084F3A031DE72CC3
:1029CC00E82CFB2C5508413E840000084F3A031DAF
:1029DC00F02CF12CFB2C4930D4005508443E8400DB
:1029EC00540880000A128A111E2F55083B3E8400A1
:1029FC0000084F3A031D032D042D1E2D55083E3E95
:102A0C00840000084F3A031D0C2D0D2D1E2D55086A
:102A1C00413E84000008203A031D152D162D1E2D55
:102A2C004830D4005508443E840054088000F82CEB
:102A3C0055083B3E840000084F3A031D262D272DD8
:102A4C00412D55083E3E84000008203A031D2F2DD1
:102A5C00302D412D5508413E840000084F3A031D8E
:102A6C00382D392D412D4130D4005508443E840079
:102A7C0054088000F82C55083B3E840000084F3A5F
:102A8C00031D492D4A2D642D55083E3E8400000837
:102A9C00203A031D522D532D642D5508413E8400C0
:102AAC000008203A031D5B2D5C2D642D4030D400B2
:102ABC005508443E840054088000F82C55083B3ED1
:102ACC0084000008203A031D6C2D6D2D872D5508B0
:102ADC003E3E840000084F3A031D752D762D872D40
:102AEC005508413E840000084F3A031D7E2D7F2D72
:102AFC00872D0930D4005508443E840054088000CA
:102B0C00F82C55083B3E84000008203A031D8F2DFD
:102B1C00922D0A128A11152855083E3E8400000891
:102B2C004F3A031D9A2D9B2D8F2D5508413E840045
:102B3C000008203A031DA32DA42D8F2D0830D4009E
:102B4C005508443E840054088000F82C8B138312E3
:102B5C000313121110100C309700073092007630CE
:102B6C008316031392003230831203139500003046
:102B7C00D5000030D4000F30D300A030D2000A169C
:102B8C008A1564270A168A117D3083160313920066
:102B9C0032308312031395000030D5000030D4007E
:102BAC000F30D300A030D2000A168A1564270A16FB
:102BBC008A119E3083160313920032308312031352
:102BCC0095000030D5000030D4000F30D300A03079
:102BDC00D2000A168A1564270A168A1176308316D3
:102BEC000313920064308312031395000030D50058
:102BFC000030D4001F30D3004030D2000A168A15A2
:102C0C0064270A168A117D308316031392006430F0
:102C1C008312031395000030D5000030D4001F3010
:102C2C00D3004030D2000A168A1564270A168A117E
:102C3C00BD308316031392003230831203139500B8
:102C4C000030D5000030D4000F30D300A030D200BB
:102C5C000A168A1564270A168A1183160313920121
:102C6C0032308312031395000030D5000030D400AD
:102C7C000730D300D030D2000A168A1564270A1602
:102C8C008A117630831603139200323083120313A9
:102C9C0095000030D5000030D4000F30D300A030A8
:102CAC00D2000A168A1564270A168A11EE3083168A
:102CBC000313920032308312031395000030D500B9
:102CCC000030D4000F30D300A030D2000A168A1581
:102CDC0064270A168A119E30831603139200323031
:102CEC008312031395000030D5000030D4000F3050
:102CFC00D300A030D2000A168A1564270A168A114E
:102D0C008D30831603139200323083120313950017
:102D1C000030D5000030D4001F30D3004030D2003A
:102D2C000A168A1564270A168A117630831603133D
:102D3C00920032308312031395000030D50000301E
:102D4C00D4001F30D3004030D2000A168A156427F5
:102D5C000A168A1183120313970176309200B4304D
:102D6C008316031392008312031395018C108316A0
:102D7C0003138C14C530831203139000E2308316B6
:102D8C0003138F00831203138C13831603138C17F6
:102D9C000A168A150B260A168A118B17080083123D
:102DAC0003130F08F100F2017108F200F1010E0893
:102DBC007107FC0072080318720AFD007D08F2000E
:102DCC007C08F1000430FF000310F10DF20DFF0B35
:102DDC00EA2E7108FC007208FD005008F100710722
:102DEC00A03E84007C0883138000840A7D08800048
:102DFC005008F1007107203E84000008F200840A9C
:102E0C000008F30004300310F30CF20CFF3E031D1A
:102E1C00092F7208C7007308C8005008F100710729
:102E2C00203E84000008F200840A0008F3000230FF
:102E3C000310F30CF20CFF3E031D1E2F7208CB0087
:102E4C007308CC004C08CA01CA074B08C901C90752
:102E5C005008F1007107203E84000008F200840A3B
:102E6C000008F3004909F4004A09F500F40A0319B3
:102E7C00F50A72087407F60073080318730A7507CD
:102E8C00F70077087D02031D4D2F76087C0203188E
:102E9C00502F512FAC2F792F792FB2010314B20D73
:102EAC00F52FB3010314B30DF52FB4010314B40DB6
:102EBC00F52FB5010314B50DF52FB6010314B60D9E
:102ECC00F52FB7010314B70DF52FB8010314B80D86
:102EDC00F52FB9010314B90DF52FBA010314BA0D6E
:102EEC00F52FF52FF52F5008003A0319532F013AFF
:102EFC000319572F033A03195B2F013A03195F2F5C
:102F0C00073A0319632F013A0319672F033A031980
:102F1C006B2F013A03196F2F0F3A0319732FF52FEB
:102F2C00F52FAC2FB201C92FB301C92FB401C92F92
:102F3C00B501C92FB601C92FB701C92FB801C92FC7
:102F4C00B901C92FBA01C92FC92FC92F5008003A8E
:102F5C000319982F013A03199A2F033A03199C2F3E
:102F6C00013A03199E2F073A0319A02F013A0319AE
:102F7C00A22F033A0319A42F013A0319A62F0F3AD3
:102F8C000319A82FC92F4709F1004809F200F10ACB
:102F9C000319F20A7D08F4007C08F30004300310D6
:102FAC00F40CF30CFF3E031DD52F71087307F500CD
:102FBC0072080318720A7407F6005008F7007707B6
:102FCC00203E8400750883138007840F00080318C3
:102FDC00000AFF0076087F0780008403F52F0A168D
:102FEC008A11FF200A168A110A168A1502260A1659
:042FFC008A1108002E
:103BF40064008001840A0406031900340406FB2DC2
:103C0400831203138E018F0191018C10101412156D
:103C14000800831203138E018F0191018C1010147C
:103C2400121508001B2E0A128A1561230A168A151A
:103C34001B2E831203134F08031D212E152E222E33
:103C440008002A2E0A128A1561230A168A152A2EBA
:103C5400831203134F08013A0319312E322E242EF6
:103C6400332E080001300A168A1577260A168A159B
:103C7400003083120313D5000030D4000030D30089
:103C84003230D2000A168A1564270A168A150800EB
:103C940018300A168A1577260A168A1500308312F8
:103CA4000313D5000030D4001730D3007030D20095
:103CB4000A168A1564270A168A150800FC01FD01F4
:103CC40083132030840052300A168A15FA250A1606
:103CD4008A15A0308400B2300A168A15FA250A160D
:103CE4008A1583010A128A15952983120313DA00AF
:103CF40009105A0886000030D5000030D400003086
:103D0400D3003230D2000A168A1564270A168A159F
:103D14000A168A1519270A168A150800831203132E
:103D2400DA0009145A0886000030D5000030D400A7
:103D34000030D3003230D2000A168A1564270A16DE
:103D44008A150A168A1519270A168A150800831275
:103D54000313D500D401551CB02EB12EB62E520833
:103D6400D3005308D407B62E0310D20D0310D50C7C
:103D7400D508031DBE2EBF2EAD2EC02E5408C22E54
:103D84000800D22E0A168A1514260A168A15DC2E65
:103D94000A168A1523260A168A15DC2EDC2EDC2E3A
:103DA400831203134F08003A0319C42E013A03196E
:103DB400CA2EDC2E0800E72E121110108C130A16DE
:103DC4008A11D5260A168A15E72E831203138C1B33
:103DD400EC2EED2EDE2EEE2E7B08FF007A088A00F4
:103DE40079088400780E8300FE0E7E0E090083128B
:103DF4000313D101051085130513871307138712C5
:103E040051080A168A1171210A168A15831203139E
:103E140051080A168A11F7210A168A158312031308
:103E240051080A168A117D220A168A15080083127F
:103E3400031389140030D5000030D4000030D300BF
:103E44003230D2000A168A1564270A168A1583129C
:103E5400031389100030D5000030D4000030D300A3
:103E64003230D2000A168A1564270A168A15080009
:103E740083120313DC00512F5C0884000A168A1194
:103E840000200A168A150A168A1590260A168A151B
:103E9400013083120313DB005B08DC07512F5C083D
:103EA400031D552F632F5C0884000A168A11002015
:103EB4000A168A150038031D602F612F3E2F632FC9
:103EC400632F080083120313550854045304520447
:103ED400031D6D2F6E2F702F952F952F0130D60057
:103EE4000030D7000030D8000030D9005608D20284
:103EF4005708031C570F7F2F802FD3025808031C29
:103F0400580F852F862FD4025908031C590F8B2F65
:103F14008C2FD5025508540453045204031D932FC7
:103F2400942F702F952F0800831203138717871B74
:103F34009C2FA02F831203130717A32F831203139D
:103F44000713071BA62FAA2F831203138716AD2F5F
:103F54008312031387122430DA005A08D10005149F
:103F64000518B52FB92F831203138517BC2F83129D
:103F740003138513851BBF2FC32F83120313051748
:103F8400C62F83120313051351080A168A117121CF
:103F94000A168A158312031351080A168A11F72187
:103FA4000A168A158312031351080A168A117D22F0
:103FB4000A168A15003083120313D5000030D4008A
:103FC4000D30D300AC30D2000A168A1564270A16C5
:103FD4008A150A168A15F9260A168A1500308312DC
:103FE4000313D5000030D4000D30D300AC30D20020
:0C3FF4000A168A1564270A168A150800B0
:02400E00E43C90
:00000001FF
