:060000000A128A11122809
:10000800FE00030EF8000408F9000A08FA0083123B
:1000180003137F08FB000A168A11F92B0A128A11AA
:100028001528FC01FD0183132030840052300A1684
:100038008A1157230A128A11A0308400B2300A1696
:100048008A11572383010A128A155D2E831203131E
:10005800871607178717051085130513D501D601CD
:100068005608803AFF0080307F02031D3D28033088
:100078005502031808008312031344080A168A114C
:1000880081250A128A118312031345080A168A1158
:10009800F7250A128A118312031346080A168A11D1
:1000A8006D260A128A118312031355083B3E8400F9
:1000B8004F3083130006031D712855083E3E840007
:1000C8004F300006031D71285508413E84004F300B
:1000D8000006031D71284930292D55083B3E840030
:1000E8004F300006031D862855083E3E84004F30D9
:1000F8000006031D86285508413E8400203000066E
:1001080003191B2955083B3E84004F300006031D88
:100118009B2855083E3E840020300006031D9B287E
:100128005508413E84004F3000060319C729550879
:100138003B3E84004F300006031DB02855083E3E64
:10014800840020300006031DB0285508413E840075
:10015800203000060319772A55083B3E84002030DA
:100168000006031DC52855083E3E84004F30000692
:10017800031DC5285508413E84004F300006031969
:10018800232B55083B3E840020300006031DDA2847
:1001980055083E3E84004F300006031DDA285508F6
:1001A800413E8400203000060319D32B55083B3EFE
:1001B800840020300006031DEF2855083E3E8400C9
:1001C80020300006031DEF285508413E84004F30BB
:1001D80000060319832C55083B3E84004F30000667
:1001E800031D062955083E3E84004F300006031DB6
:1001F80006295508413E840058300006031D06298B
:100208004A30292D55083B3E84004F300006031D17
:100218001D2955083E3E84004F300006031D1D2948
:100228005508413E840020300006031D1D29483032
:10023800292D55083B3E84004F300006031D322906
:1002480055083E3E840020300006031D322955081B
:10025800413E8400583000060319602A55083B3E89
:1002680084004F300006031D472955083E3E840090
:1002780020300006031D47295508413E84002030E0
:1002880000060319772A55083B3E840020300006F3
:10029800031D5C2955083E3E84004F300006031DAF
:1002A8005C295508413E8400583000060319BC2BD0
:1002B80055083B3E840020300006031D712955086F
:1002C8003E3E84004F300006031D71295508413E0B
:1002D8008400203000060319D32B55083B3E8400C8
:1002E80020300006031D862955083E3E8400203034
:1002F8000006031D86295508413E84005830000633
:100308000319282D55083B3E84004F300006031D75
:100318009D2955083E3E840058300006031D9D293E
:100328005508413E84004F300006031D9D29513079
:10033800292D55083B3E84004F300006031DB22985
:1003480055083E3E840058300006031DB229550862
:10035800413E8400203000060319492A55083B3ED7
:1003680084004F300006031DC92955083E3E84000D
:1003780020300006031DC9295508413E84004F302E
:100388000006031DC9294130292D55083B3E84002C
:100398004F300006031DDE2955083E3E84002030FC
:1003A8000006031DDE295508413E84002030000662
:1003B8000319772A55083B3E840020300006031DA8
:1003C800F32955083E3E840058300006031DF329E2
:1003D8005508413E84004F3000060319572C550834
:1003E8003B3E840020300006031D082A55083E3E87
:1003F800840058300006031D082A5508413E840031
:10040800203000060319112D55083B3E840020308A
:100418000006031D1D2A55083E3E840020300006B4
:10042800031D1D2A5508413E84004F30000603195C
:10043800832C55083B3E84004F300006031D342AA8
:1004480055083E3E840058300006031D342A5508DE
:10045800413E840058300006031D342A5230292DAD
:1004680055083B3E84004F300006031D4B2A5508B3
:100478003E3E840058300006031D4B2A5508413E75
:10048800840020300006031D4B2A5030292D5508C2
:100498003B3E84004F300006031D622A55083E3E4D
:1004A800840020300006031D622A5508413E84005E
:1004B80058300006031D622A4230292D55083B3E5C
:1004C80084004F300006031D792A55083E3E8400FB
:1004D80020300006031D792A5508413E840020304B
:1004E8000006031D792A4030292D55083B3E84001B
:1004F80020300006031D8E2A55083E3E84005830E1
:100508000006031D8E2A5508413E84005830000617
:100518000319FA2C55083B3E840020300006031DC1
:10052800A32A55083E3E840058300006031DA32A1E
:100538005508413E8400203000060319112D550846
:100548003B3E840020300006031DB82A55083E3E75
:10055800840020300006031DB82A5508413E840057
:10056800583000060319282D55083B3E84005830A2
:100578000006031DCF2A55083E3E84004F30000672
:10058800031DCF2A5508413E84004F300006031D45
:10059800CF2A8930292D55083B3E84005830000663
:1005A800031DE42A55083E3E84004F300006031D13
:1005B800E42A5508413E84002030000603197B2BAD
:1005C80055083B3E840058300006031DF92A55089B
:1005D8003E3E840020300006031DF92A5508413E9E
:1005E80084004F30000603192B2C55083B3E84002D
:1005F80058300006031D0E2B55083E3E840020305F
:100608000006031D0E2B5508413E840020300006CD
:100618000319E32C55083B3E840020300006031DD7
:10062800252B55083E3E84004F300006031D252B20
:100638005508413E84004F300006031D252B093024
:10064800292D55083B3E840020300006031D3A2B17
:1006580055083E3E84004F300006031D3A2B5508CE
:10066800413E8400203000060319D32B55083B3E39
:10067800840020300006031D4F2B55083E3E8400A1
:1006880020300006031D4F2B5508413E84004F3093
:1006980000060319832C55083B3E84005830000699
:1006A800031D662B55083E3E84004F300006031D8F
:1006B800662B5508413E840058300006031D662B02
:1006C8008A30292D55083B3E840058300006031D0A
:1006D8007D2B55083E3E84004F300006031D7D2BC0
:1006E8005508413E840020300006031D7D2B8830CC
:1006F800292D55083B3E840058300006031D922BD7
:1007080055083E3E840020300006031D922B5508F4
:10071800413E8400583000060319CC2C55083B3E56
:10072800840058300006031DA72B55083E3E840060
:1007380020300006031DA72B5508413E84002030B9
:1007480000060319E32C55083B3E840020300006C0
:10075800031DBE2B55083E3E84004F300006031D86
:10076800BE2B5508413E840058300006031DBE2BA1
:100778000A30292D55083B3E840020300006031D11
:10078800D52B55083E3E84004F300006031DD52B5F
:100798005508413E840020300006031DD52B083043
:1007A800292D55083B3E840020300006031DEA2B06
:1007B80055083E3E840020300006031DEA2B5508EC
:1007C800413E8400583000060319282D55083B3E49
:1007D800840058300006031D012C55083E3E840055
:1007E80058300006031D012C5508413E84004F3047
:1007F8000006031D012C9130292D55083B3E84002D
:1008080058300006031D162C55083E3E840058300B
:100818000006031D162C5508413E840020300006B2
:100828000319B52C55083B3E840058300006031DBB
:100838002D2C55083E3E840020300006031D2D2C2B
:100848005508413E84004F300006031D2D2C813091
:10085800292D55083B3E840058300006031D422CC4
:1008680055083E3E840020300006031D422C5508E2
:10087800413E8400203000060319E32C55083B3E16
:10088800840020300006031D592C55083E3E840084
:1008980058300006031D592C5508413E84004F303E
:1008A8000006031D592C1130292D55083B3E8400A4
:1008B80020300006031D6E2C55083E3E840058303B
:1008C8000006031D6E2C5508413E840020300006AA
:1008D8000319112D55083B3E840020300006031DE6
:1008E800892C55083E3E840020300006031D892CC3
:1008F8005508413E84004F300006031D892C5508D9
:10090800443E84008001800A2F2D55083B3E840018
:1009180058300006031DA02C55083E3E8400583070
:100928000006031DA02C5508413E840058300006DF
:10093800031DA02C9230292D55083B3E84005830C9
:100948000006031DB72C55083E3E840058300006AB
:10095800031DB72C5508413E840020300006031DB6
:10096800B72C9030292D55083B3E8400583000069E
:10097800031DCE2C55083E3E840020300006031D82
:10098800CE2C5508413E840058300006031DCE2C5D
:100998008230292D55083B3E840058300006031D3F
:1009A800E52C55083E3E840020300006031DE52C4A
:1009B8005508413E840020300006031DE52C803098
:1009C800292D55083B3E840020300006031DFC2CD1
:1009D80055083E3E840058300006031DFC2C55087F
:1009E800413E840058300006031DFC2C1230292D8E
:1009F80055083B3E840020300006031D132D550882
:100A08003E3E840058300006031D132D5508413E14
:100A1800840020300006031D132D1030292D5508A1
:100A28003B3E840020300006031D2F2D55083E3E16
:100A3800840020300006031D2F2D5508413E8400F8
:100A480058300006031D2F2D0230D4005508443EAF
:100A580084005408800044080A168A1181250A1265
:100A68008A118312031345080A168A11F7250A12F8
:100A78008A118312031346080A168A116D260A1270
:100A88008A11013083120313D5070318D60A0030E0
:100A9800D60734288B1383120313121110100C304D
:100AA800970007309200BC3083160313920032304F
:100AB8008312031395000030D5000030D4000F30A6
:100AC800D300A030D2000A128A15D9200A128A113E
:100AD800BC3083160313920032308312031395003F
:100AE8000030D5000030D4000F30D300A030D20041
:100AF8000A128A15D9200A128A11B23083160313F2
:100B0800920032308312031395000030D500003074
:100B1800D4000F30D300A030D2000A128A15D92091
:100B28000A128A119E3083160313920064308312CE
:100B3800031395000030D5000030D4000F30D300E7
:100B4800A030D2000A128A15D9200A128A119E30C2
:100B58008316031392006430831203139500003048
:100B6800D5000030D4000F30D300A030D2000A12D4
:100B78008A15D9200A128A11B230831603139200FB
:100B880032308312031395000030D5000030D400B2
:100B98000F30D300A030D2000A128A15D9200A12C9
:100BA8008A11BC3083160313920032308312031368
:100BB80095000030D5000030D4000F30D300A030AD
:100BC800D2000A128A15D9200A128A11D330831644
:100BD8000313920032308312031395000030D500BE
:100BE8000030D4000F30D300A030D2000A128A158A
:100BF800D9200A128A11EE3083160313920032307C
:100C08008312031395000030D5000030D4000F3054
:100C1800D300A030D2000A128A15D9200A128A11EC
:100C2800EE308316031392003230831203139500BB
:100C38000030D5000030D4000F30D300A030D200EF
:100C48000A128A15D9200A128A11D330831603137F
:100C5800920032308312031395000030D500003023
:100C6800D4000F30D300A030D2000A128A15D92040
:100C78000A128A11BC308316031392003230831291
:100C8800031395000030D5000030D4000F30D30096
:100C9800A030D2000A128A15D9200A128A11BC3053
:100CA8008316031392003230831203139500003029
:100CB800D5000030D4000F30D300A030D2000A1283
:100CC8008A15D9200A128A11D33083160313920089
:100CD80032308312031395000030D5000030D40061
:100CE8000730D300D030D2000A128A15D9200A1250
:100CF8008A11D33083160313920032308312031300
:100D080095000030D5000030D4001F30D3004030AB
:100D1800D2000A128A15D9200A128A11BC30831609
:100D28000313920032308312031395000030D5006C
:100D38000030D4000F30D300A030D2000A128A1538
:100D4800D9200A128A11BC3083160313920032305C
:100D58008312031395000030D5000030D4000F3003
:100D6800D300A030D2000A128A15D9200A128A119B
:100D7800B2308316031392003230831203139500A6
:100D88000030D5000030D4000F30D300A030D2009E
:100D98000A128A15D9200A128A119E308316031363
:100DA800920032308312031395000030D5000030D2
:100DB800D4000F30D300A030D2000A128A15D920EF
:100DC8000A128A119E30831603139200323083125E
:100DD800031395000030D5000030D4000F30D30045
:100DE800A030D2000A128A15D9200A128A11B2300C
:100DF80083160313920032308312031395000030D8
:100E0800D5000030D4000F30D300A030D2000A1231
:100E18008A15D9200A128A11BC308316031392004E
:100E280032308312031395000030D5000030D4000F
:100E38000F30D300A030D2000A128A15D9200A1226
:100E48008A11D330831603139200323083120313AE
:100E580095000030D5000030D4000F30D300A0300A
:100E6800D2000A128A15D9200A128A11EE30831686
:100E78000313920032308312031395000030D5001B
:100E88000030D4000F30D300A030D2000A128A15E7
:100E9800D9200A128A11EE308316031392003230D9
:100EA8008312031395000030D5000030D4000F30B2
:100EB800D300A030D2000A128A15D9200A128A114A
:100EC800D330831603139200323083120313950034
:100ED8000030D5000030D4000F30D300A030D2004D
:100EE8000A128A15D9200A128A11BC3083160313F4
:100EF800920032308312031395000030D500003081
:100F0800D4000F30D300A030D2000A128A15D9209D
:100F18000A128A11D33083160313920032308312D7
:100F2800031395000030D5000030D4000F30D300F3
:100F3800A030D2000A128A15D9200A128A11EE307E
:100F48008316031392003230831203139500003086
:100F5800D5000030D4000730D300D030D2000A12B8
:100F68008A15D9200A128A11EE30831603139200CB
:100F780032308312031395000030D5000030D400BE
:100F88001F30D3004030D2000A128A15D9200A1225
:100F98008A1183120313970176309200B4308316B6
:100FA800031392008312031395018C108316031305
:100FB8008C14C530831203139000E2308316031398
:100FC8008F00831203138C13831603138C170A16CE
:100FD8008A1168238B170800831203134F03031D1C
:0E0FE80008000A128A1524250A128A11F02F19
:1010000008308A000408840A8207003450345234BD
:1010100020343234383420342D3420346D34543478
:101020006F347534633468342034773469347434FD
:101030006834203454346934633420345434613493
:101040006334203454346F34653400344334793499
:10105000743472346F346E342034543465346334F1
:1010600068346E346F346C346F346734693465348B
:1010700073342034533464346E342034423468344E
:101080006434203420342034003463346F346E34BC
:10109000673472346134743475346C34613474344C
:1010A00069346F346E342134203400342A342A34C5
:1010B00070346C34613479346534723431342034B2
:1010C000773469346E3473342A342A3400342A3441
:1010D0002A3470346C346134793465347234323487
:1010E0002034773469346E3473342A342A3400342B
:1010F00050346C3461347934653472342034323491
:1011000020343D34203467347234653465346E34B1
:10111000003450346C3461347934653472342034A2
:1011200031342734733420347434753472346E346B
:10113000003450346C346134793465347234203482
:1011400032342734733420347434753472346E344A
:10115000003450346C346134793465347234203462
:1011600031342034733474346134723474347334ED
:10117000003450346C346134793465347234203442
:10118000313420343D3420347234653464340034D6
:101190002A342A342A3464347234613477342A3459
:1011A0002A342A3400346634693472347334743423
:1011B00000348312031355085404530452040319D2
:1011C00008000130D6000030D7000030D8000030D1
:1011D000D9005608D2025708031C570FF028F128EF
:1011E000D3025808031C580FF628F728D4025908D0
:1011F000031C590FFC28DB28D502DB288B13831234
:101200000313121110100C30970007309200EE30CB
:1012100083160313920032308312031395000030BB
:10122000D5000030D4000730D300D030D2000A12ED
:101230008A15D9200A128A15D33083160313920017
:1012400032308312031395000030D5000030D400F3
:101250000730D300D030D2000A128A15D9200A12E2
:101260008A15BD3083160313920064308312031372
:1012700095000030D5000030D4000730D300D030C6
:10128000D2000A128A15D9200A128A15B2308316A2
:101290000313920064308312031395000030D500CD
:1012A0000030D4000730D300D030D2000A128A15A3
:1012B000D9200A128A159E30831603139200323009
:1012C0008312031395000030D5000030D40007309E
:1012D000D300D030D2000A128A15D9200A128A15FA
:1012E0008D3083160313920032308312031395005E
:1012F0000030D5000030D4000730D300D030D20009
:101300000A128A15D9200A128A157D308316031312
:10131000920032308312031395000030D500003064
:10132000D4000730D300D030D2000A128A15D92059
:101330000A128A1576308316031392003230831214
:10134000031395000030D5000030D4000F30D300D7
:10135000A030D2000A128A15D9200A128A158312E7
:101360000313970176309200B43083160313920072
:101370008312031395018C10831603138C14C5304C
:10138000831203139000E230831603138F0083123D
:1013900003138C13831603138C170A168A11682300
:1013A0008B170800831203130F08FD000E08FC00C2
:1013B0007D08F2007C08F100F10EF20EF030F2052B
:1013C00071080F39F204F030F1057108FC00720861
:1013D000FD005008F1007107A03E84007C088313D3
:1013E0008000840A7D0880005008F1007107203ECB
:1013F00084000008F200840A0008F300720E0F391E
:10140000C700730EF039C704730E0F39C8005008B7
:10141000F1007107203E84000008F200840A0008F1
:10142000F3000310F30CF20C0310F30CF20C72082F
:10143000CB007308CC004C08CA004B08C900500808
:10144000F1007107203E84000008F200840A0008C1
:10145000F3004909F4004A09F500F40A0319F50AF2
:1014600072087407F60073080318730A7507F7000B
:1014700077087D02031D3E2A76087C02031C5C2A45
:101480008C2AB201B20AD42AB301B30AD42AB40115
:10149000B40AD42AB501B50AD42AB601B60AD42AA8
:1014A000B701B70AD42AB801B80AD42AB901B90ACF
:1014B000D42ABA01BA0AD42A5008003A0319412A98
:1014C000013A0319442A033A0319472A013A031936
:1014D0004A2A073A03194D2A013A0319502A033AB6
:1014E0000319532A013A0319562A0F3A0319592AA4
:1014F000D42AD42AB201A92AB301A92AB401A92A5B
:10150000B501A92AB601A92AB701A92AB801A92AB1
:10151000B901A92ABA01A92A5008003A03197A2A5E
:10152000013A03197C2A033A03197E2A013A031966
:10153000802A073A0319822A013A0319842A033AB6
:101540000319862A013A0319882A0F3A03198A2AAD
:10155000A92A4709F1004809F200F10A0319F20A21
:101560007D08F4007C08F30004300310F40CF30C45
:10157000FF3E031DB52A71087307F50072080318B2
:10158000720A7407F6005008F7007707203E8400BF
:10159000750883138007840F00080318000AFF00F2
:1015A00076087F07800084030A168A11C4240A1271
:1015B0008A150A168A115F23080083120313D901C2
:1015C000DA01E001E1016108803AFF0080307F022A
:1015D000031DEC2A0330600203188B2B03308312A7
:1015E0000313D6005608D20060080A168A117C231D
:1015F0000A128A15013E3B3E8400831300088312C1
:101600000313D7000330D8005808D20060080A1628
:101610008A117C230A128A153B3E8400831300083A
:10162000831203135706031D472B0330D6005608B9
:10163000D20060080A168A117C230A128A15023E1B
:101640003B3E84008313000883120313D70003304A
:10165000D8005808D20060080A168A117C230A12A2
:101660008A153B3E84008313000883120313570638
:10167000031D472B0330D6005608D20060080A1617
:101680008A117C233B3E84008313000808008312E8
:10169000031360083E3E84000008D60060083B3E0D
:1016A000840000085606031D662B6008413E840036
:1016B0000008D60060083B3E840000085606031D63
:1016C000662B60083B3E8400000808003F083B068C
:1016D000031D702B43083B06031D702B3B080800BD
:1016E0003D083F06031D7A2B3D084106031D7A2B5A
:1016F0003D0808000130E0070318E10A0030E10767
:101700006108803AFF0080307F02031D892B03307F
:101710006002031CEE2A83120313DC01DD015D0865
:10172000803AFF0080307F02031D982B03305C025B
:101730000318EB2B83120313DE01DF015F08803AED
:10174000FF0080307F02031DA72B03305E020318C9
:10175000D82B033083120313D6005608D2005C083E
:101760000A168A117C230A128A153B3E8312031340
:101770005E07D70057088400203083130006031D3E
:10178000C72B0130D9070318DA0A0030DA07013015
:10179000DE070318DF0A0030DF075F08803AFF002A
:1017A00080307F02031DD62B03305E02031CA92B61
:1017B000013083120313DC070318DD0A0030DD0754
:1017C0005D08803AFF0080307F02031DE92B033063
:1017D0005C02031C9A2B8312031359085A04031D3D
:1017E000F72B6430D6005608DB005B080800203079
:1017F000D6005608DB005B0808008B138312031326
:10180000121110100C3097000730920076308316BA
:101810000313920032308312031395000030D50079
:101820000030D4000F30D300A030D2000A128A1545
:10183000D9200A128A157D308316031392003230A4
:101840008312031395000030D5000030D4000F3010
:10185000D300A030D2000A128A15D9200A128A15A4
:101860009E308316031392003230831203139500C7
:101870000030D5000030D4000F30D300A030D200AB
:101880000A128A15D9200A128A1576308316031394
:10189000920064308312031395000030D5000030AD
:1018A000D4001F30D3004030D2000A128A15D9204C
:1018B0000A128A157D308316031392006430831256
:1018C000031395000030D5000030D4001F30D30042
:1018D0004030D2000A128A15D9200A128A15BD306A
:1018E00083160313920032308312031395000030E5
:1018F000D5000030D4000F30D300A030D2000A123F
:101900008A15D9200A128A158316031392013230E0
:101910008312031395000030D5000030D400073047
:10192000D300D030D2000A128A15D9200A128A15A3
:10193000763083160313920032308312031395001E
:101940000030D5000030D4000F30D300A030D200DA
:101950000A128A15D9200A128A15EE30831603134B
:10196000920032308312031395000030D50000300E
:10197000D4000F30D300A030D2000A128A15D9202B
:101980000A128A159E308316031392003230831296
:10199000031395000030D5000030D4000F30D30081
:1019A000A030D2000A128A15D9200A128A158D3069
:1019B0008316031392003230831203139500003014
:1019C000D5000030D4001F30D3004030D2000A12BE
:1019D0008A15D9200A128A157630831603139200CD
:1019E00032308312031395000030D5000030D4004C
:1019F0001F30D3004030D2000A128A15D9200A12B3
:101A00008A1583120313970176309200B43083163F
:101A1000031392008312031395018C108316031392
:101A20008C14C530831203139000E2308316031325
:101A30008F00831203138C13831603138C170A165B
:101A40008A1168238B170800831203133203031DC6
:101A5000482D58303B060319312D4F303B06031DEE
:101A6000352D4F08031D442D472D0A168A11E326F4
:101A70000A128A150A128A112A200A128A1583125A
:101A800003134F08031D472DCF01CF0A482DCF0167
:101A90003303031D6A2D58303C060319532D4F3074
:101AA0003C06031D572D4F08031D662D692D0A1690
:101AB0008A11E3260A128A150A128A112A200A12AA
:101AC0008A15831203134F08031D692DCF01CF0A16
:101AD0006A2DCF013403031D8C2D58303D060319A8
:101AE000752D4F303D06031D792D4F08031D882DA0
:101AF0008B2D0A168A11E3260A128A150A128A11F8
:101B00002A200A128A15831203134F08031D8B2DF6
:101B1000CF01CF0A8C2DCF013503031DAE2D5830D8
:101B20003E060319972D4F303E06031D9B2D4F088F
:101B3000031DAA2DAD2D0A168A11E3260A128A1555
:101B40000A128A112A200A128A15831203134F08D7
:101B5000031DAD2DCF01CF0AAE2DCF013603031DDE
:101B6000D02D58303F060319B92D4F303F06031DC5
:101B7000BD2D4F08031DCC2DCF2D0A168A11E3264B
:101B80000A128A150A128A112A200A128A15831249
:101B900003134F08031DCF2DCF01CF0AD02DCF0146
:101BA0003703031DF22D583040060319DB2D4F304B
:101BB0004006031DDF2D4F08031DEE2DF12D0A16E3
:101BC0008A11E3260A128A150A128A112A200A1299
:101BD0008A15831203134F08031DF12DCF01CF0A7D
:101BE000F22DCF013803031D142E5830410603197E
:101BF000FD2D4F304106031D012E4F08031D102EF1
:101C0000132E0A168A11E3260A128A150A128A115D
:101C10002A200A128A15831203134F08031D132E5C
:101C2000CF01CF0A142ECF013903031D362E5830B1
:101C3000420603191F2E4F304206031D232E4F0864
:101C4000031D322E352E0A168A11E3260A128A1532
:101C50000A128A112A200A128A15831203134F08C6
:101C6000031D352ECF01CF0A362ECF013A03031DB7
:101C70000800583043060319412E4F304306031D18
:101C8000492E4F08031D462ECF010800CF01CF0A71
:101C900008000A168A11E3260A128A150A128A1106
:101CA0002A200A128A15831203134F08031D5B2E84
:101CB000CF01CF0A0800CF0108000A168A118B2431
:101CC0000A128A1501300A168A11CB230A128A15C4
:101CD00002300A168A11CB230A128A1506300A1618
:101CE0008A11CB230A128A150C300A168A11CB23CB
:101CF0000A128A1538300A168A11CB230A128A155D
:101D00000A168A11A3230A128A1500300A168A11AC
:101D100011240A128A1521300A168A1168240A121F
:101D20008A1514300A168A1111240A128A150130F4
:101D30000A168A1168240A128A15003083120313C6
:101D4000D5000030D4002730D3001030D2000A1262
:101D50008A15D9200A128A1583120313E401E501BA
:101D60006508803AFF0080307F02031DB92E0F30D6
:101D700064020318D32E0A168A11B7230A128A1591
:101D8000013083120313E4070318E50A0030E50766
:101D90006508803AFF0080307F02031DD12E0F308E
:101DA0006402031CBB2E003083120313D5000030E5
:101DB000D4007530D3003030D2000A128A15D920F1
:101DC0000A128A150A168A11A3230A128A150030EC
:101DD0000A168A1111240A128A15B4300A168A11B9
:101DE00068240A128A1514300A168A1111240A125C
:101DF0008A1573300A168A1168240A128A1500306F
:101E000083120313D5000030D400EA30D3006030D1
:101E1000D2000A128A15D9200A128A150A168A11C6
:101E2000A3230A128A1500300A168A1111240A12F5
:101E30008A15A4300A168A1168240A128A151430E9
:101E40000A168A1111240A128A15CE300A168A112E
:101E500068240A128A15003083120313D50000305B
:101E6000D4007530D3003030D2000A128A15D92040
:101E70000A128A1583120313B501B401B301B2012A
:101E8000B901B801B701B601BA010A128A15FE20DC
:101E90000A128A152030831203134E06031D832F66
:101EA000831203134F08031D622F0A168A11A323FE
:101EB0000A128A1500300A168A1111240A128A158C
:101EC00084306E2F0A168A11A3230A128A15003055
:101ED0000A168A1111240A128A1594300A168A11D8
:101EE00068240A128A150A168A118F230A128A1583
:101EF0000A128A15DD220A128A1583120313E300DF
:101F00006308CE004A2F58304E06031DA92F0A122F
:101F10008A15FD230A128A150A168A11A3230A12AA
:101F20008A1500300A168A1111240A128A154030C7
:101F30000A168A1168240A128A1514300A168A11A0
:101F400011240A128A1551300A168A1168240A12BD
:101F50008A154F30831203134E06031DD12F0A1228
:101F60008A15FD230A128A150A168A11A3230A125A
:101F70008A1500300A168A1111240A128A15403077
:101F80000A168A1168240A128A1514300A168A1150
:101F900011240A128A1562300A168A1168240A125C
:101FA0008A156430831203134E06031DFF2F0A1295
:101FB0008A114E250A128A150A168A111D250A123F
:101FC0008A150A168A11A3230A128A1500300A16E6
:101FD0008A1111240A128A1540300A168A116824BF
:101FE0000A128A1514300A168A1111240A128A1547
:101FF000C3300A168A1168240A128A15DC2FFF2FB3
:1026AE0064008001840A0406031900340406582BC2
:1026BE00831203138E018F0191018C1010141215C9
:1026CE000800831203138E018F0191018C101014D8
:1026DE0012150800831203134F08031D08000A1277
:1026EE008A1524250A168A11712B83120313D5001D
:1026FE00D401551C862B5208D3005308D40703105F
:10270E00D20D0310D50C5508031D802B540808005C
:10271E00982B0A168A11712308000A128A11F027C3
:10272E000800831203134F08003A0319902B013A45
:10273E000319942BA22B080001300A168A11CB2301
:10274E000A168A11003083120313D5000030D4000C
:10275E000030D3003230D2000A128A15D920080078
:10276E0018300A168A11CB230A168A1100308312EA
:10277E000313D5000030D4001730D3007030D200D0
:10278E000A128A15D920080083120313DA000910E1
:10279E005A0886000030D5000030D4000030D30037
:1027AE003230D2000A128A15D9200A168A110A1658
:1027BE008A114924080083120313DA0009145A08F7
:1027CE0086000030D5000030D4000030D300323007
:1027DE00D2000A128A15D9200A168A110A168A11EF
:1027EE0049240800831203138C1F062C121110109B
:1027FE008C130A128A15D2210A168A11F92B7B081C
:10280E00FF007A088A0079088400780E8300FE0E95
:10281E007E0E090083120313DC0010305C020318D5
:10282E001E2C5C08803E0A168A11CB2308008312E8
:10283E0003135C08EC3EDB005B08DC005C08C03E6A
:10284E000A168A11CB23080083120313D101051037
:10285E008513051387130713871251080A168A1159
:10286E0081250A168A118312031351080A168A113A
:10287E00F7250A168A118312031351080A168A11B4
:10288E006D2608008312031389140030D500003022
:10289E00D4000030D3003230D2000A128A15D9206B
:1028AE000A168A118312031389100030D5000030E6
:1028BE00D4000030D3003230D2000A128A15D9204B
:1028CE00080083120313DC005C08031908005C087F
:1028DE0084000A128A1500200A168A11003A03197A
:1028EE0008005C0884000A128A1500200A168A1154
:1028FE000A168A11E2230A168A1101308312031373
:10290E00DB005B08DC076B2C10308316031385008D
:10291E0086018701FF308800890183120313860127
:10292E0089010A168A112B240A168A111030831671
:10293E000317850086018901FF3088008312031377
:10294E00D101CF01D00110308316031390008B17E5
:10295E008D30831203178800083089000A168A11F9
:10296E006B270A168A110A128A15DD2283120313A7
:10297E00E2006208CE000B1708000130F00070086C
:10298E0083120313D007093050020318D0015008E8
:10299E00031DD52C0830831203178900031350032F
:1029AE00031DDD2C09308312031789000230031337
:1029BE005006031DE62C0A308312031789000330DC
:1029CE0003135006031DEF2C0B30831203178900DF
:1029DE00043003135006031DF82C0C30831203171A
:1029EE008900053003135006031D012D0D3083128F
:1029FE0003178900063003135006031D0A2D0E30EF
:102A0E00831203178900073003135006031D132D7D
:102A1E000F30831203178900083003135006031D6D
:102A2E00080006308312031789000800831203136F
:102A3E008717871F262D831203130717292D83123D
:102A4E0003130713071F2F2D831203138716322D1F
:102A5E008312031387122430DA005A08D1000514AA
:102A6E00051C3D2D831203138517402D831203136E
:102A7E008513851F462D831203130517492D8312C7
:102A8E000313051351080A168A1181250A168A1195
:102A9E008312031351080A168A11F7250A168A1192
:102AAE008312031351080A168A116D260A168A110B
:102ABE00003083120313D5000030D4000D30D30044
:102ACE00AC30D2000A128A15D9200A168A110A16BB
:102ADE008A112B240A168A11003083120313D50093
:102AEE000030D4000D30D300AC30D2000A128A155B
:102AFE00D920080083120313D300531C882D87148A
:102B0E00892D8710871587115308D20001300310C5
:102B1E00D20CFF3E031D8E2D521C972D8714982D1F
:102B2E008710871587115308D20002300310D20C7C
:102B3E00FF3E031D9D2D521CA62D8714A72D871019
:102B4E00871587115308D20003300310D20CFF3EB5
:102B5E00031DAC2D521CB52D8714B62D871087156D
:102B6E0087115308D20004300310D20CFF3E031D10
:102B7E00BB2D521CC42D8714C52D871087158711A8
:102B8E005308D20005300310D20CFF3E031DCA2D90
:102B9E00521CD32D8714D42D8710871587115308F7
:102BAE00D20006300310D20CFF3E031DD92D521C4D
:102BBE00E22D8714E32D8710871587115308D20055
:102BCE0007300310D20CFF3E031DE82D521CF12DD1
:102BDE008714F22D87108715871107160712080024
:102BEE0083120313D300531CFE2D8516FF2D851261
:102BFE00071407105308D20001300310D20CFF3E09
:102C0E00031D042E521C0D2E85160E2E8512071432
:102C1E0007105308D20002300310D20CFF3E031DE2
:102C2E00132E521C1C2E85161D2E851207140710EE
:102C3E005308D20003300310D20CFF3E031D222E88
:102C4E00521C2B2E85162C2E851207140710530896
:102C5E00D20004300310D20CFF3E031D312E521C45
:102C6E003A2E85163B2E8512071407105308D200F4
:102C7E0005300310D20CFF3E031D402E521C492E70
:102C8E0085164A2E8512071407105308D2000630F7
:102C9E000310D20CFF3E031D4F2E521C582E8516CC
:102CAE00592E8512071407105308D200073003104F
:102CBE00D20CFF3E031D5E2E521C672E8516682E0B
:102CCE008512071407100915091108008312031342
:102CDE00D300531C742E8514752E85108515851101
:102CEE005308D20001300310D20CFF3E031D7A2E82
:102CFE00521C832E8514842E85108515851153083C
:102D0E00D20002300310D20CFF3E031D892E521C3E
:102D1E00922E8514932E8510851585115308D20099
:102D2E0003300310D20CFF3E031D982E521CA12E11
:102D3E008514A22E8510851585115308D2000430F6
:102D4E000310D20CFF3E031DA72E521CB02E85146D
:102D5E00B12E8510851585115308D200053003104C
:102D6E00D20CFF3E031DB62E521CBF2E8514C02E54
:102D7E008510851585115308D20006300310D20C2C
:102D8E00FF3E031DC52E521CCE2E8514CF2E851050
:102D9E00851585115308D20007300310D20CFF3E63
:102DAE00031DD42E521CDD2E8514DE2E85108515A6
:102DBE008511051505110800831203134F08031D15
:102DCE00282F3203031DEF2E5830D2005208BB00BD
:102DDE003303031DF62E5830D2005208BC003403C4
:102DEE00031DFD2E5830D2005208BD003503031DC1
:102DFE00042F5830D2005208BE003603031D0B2F8D
:102E0E005830D2005208BF003703031D122F58301E
:102E1E00D2005208C0003803031D192F5830D200BB
:102E2E005208C1003903031D202F5830D20052081A
:102E3E00C2003A03031D08005830D2005208C300E6
:102E4E0008004F03031D08003203031D322F4F30BD
:102E5E00D2005208BB003303031D392F4F30D2006E
:102E6E005208BC003403031D402F4F30D2005208CD
:102E7E00BD003503031D472F4F30D2005208BE0050
:102E8E003603031D4E2F4F30D2005208BF003703BA
:102E9E00031D552F4F30D2005208C0003803031DBA
:102EAE005C2F4F30D2005208C1003903031D632F2F
:102EBE004F30D2005208C2003A03031D08004F30B3
:102ECE00D2005208C300080083120313D001093048
:102EDE00500203188B2F5008D6005607203E840050
:102EEE0083138001840A80015008D6005607A03E45
:102EFE0084008001840A80010130D6005608D00774
:102F0E0009305002031C722FD901DA015A08803A97
:102F1E00FF0080307F02031D962F033059020318E5
:102F2E00E32F83120313DB01DC015C08803AFF0000
:102F3E0080307F02031DA52F03305B020318D02FB4
:102F4E00203083120313D6000330D7005708D20067
:102F5E0059080A168A117C230A168A113B3E8312DF
:102F6E0003135B07D80058088400560883138000AB
:102F7E000130DB070318DC0A0030DC075C08803AFE
:102F8E00FF0080307F02031DCE2F03305B02031C37
:102F9E00A72F013083120313D9070318DA0A003062
:102FAE00DA075A08803AFF0080307F02031DE12FB6
:102FBE0003305902031C982F7630831203139200AC
:102FCE00B430831603139200831203138C108316EE
:102FDE0003138C14C530831203139000E230831652
:102FEE0003138F00831203138C13831603138C1792
:022FFE000800C9
:04400E00E4FCFFFFD0
:00000001FF
