:0600000000308A00122806
:10000800FF00030883120313B4000408B5000A08AC
:10001800B6007E08B7000A168A158A2E4930840071
:1000280070300A128A112F200A128A11DE308400D9
:10003800F0300A128A112F200A128A1183177130A0
:1000480084007E300A128A112F200A128A11830135
:100058000A128A11372864008001840A04060319E9
:100068000034040630280A168A159B270A128A11BA
:1000780001300A168A15A4260A128A1102300A16B5
:100088008A15A4260A128A1106300A168A15A42689
:100098000A128A110C300A168A15A4260A128A1125
:1000A80038300A168A15A4260A128A110A168A15E1
:1000B80045260A128A1100300A168A15DA260A120B
:1000C8008A1121300A168A1519270A128A11143042
:1000D8000A168A15DA260A128A1101300A168A15B2
:1000E80019270A128A11831203130030A90000305D
:1000F800A8002730A7001030A6000A168A156D2719
:100108000A128A11003083120313A0000030A100E4
:100118008D280A168A155B260A128A118312031380
:100128000130A0070318A10A0030A1072108803A6E
:10013800A20080302202031DA3280F302002031CD6
:10014800A628A7288D280030A9000030A8007530FF
:10015800A7003030A6000A168A156D270A128A11E0
:100168000A168A1545260A128A1100300A168A15B7
:10017800DA260A128A11B4300A168A1519270A12C1
:100188008A1114300A168A15DA260A128A1173306F
:100198000A168A1519270A128A11831203130030C6
:1001A800A9000030A800EA30A7006030A6000A16AF
:1001B8008A156D270A128A110A168A1545260A1207
:1001C8008A1100300A168A15DA260A128A11843032
:1001D8000A168A1519270A128A1114300A168A155E
:1001E800DA260A128A11CE300A168A1519270A1237
:1001F8008A11831203130030A9000030A80075305B
:10020800A7003030A6000A168A156D270A128A112F
:10021800003083120313EA00E900E800A200220874
:10022800E7000030EE00ED00EC00A2002208EB0031
:100238000310003003180130EF000A168A11A323B7
:100248000A128A115E29F508031D2B292C293E293B
:100258000A168A1545260A128A1100300A168A15C6
:10026800DA260A128A11A4300A168A1519270A12E0
:100278008A114F290A168A1545260A128A11003052
:100288000A168A15DA260A128A1194300A168A156D
:1002980019270A128A110A168A1571260A128A1152
:1002A8000A168A1181240A128A1183120313A200E2
:1002B8002208F800831203137808203A03196529E5
:1002C800662927297808583A031D6B296C298E2935
:1002D8000A168A118A250A128A110A168A154526CB
:1002E8000A128A1100300A168A15DA260A128A11A9
:1002F80040300A168A1519270A128A1114300A166C
:100308008A15DA260A128A1151300A168A1519270F
:100318000A128A118312031378084F3A031D95298C
:100328009629B8290A168A118A250A128A110A16E4
:100338008A1545260A128A1100300A168A15DA2605
:100348000A128A1140300A168A1519270A128A11C8
:1003580014300A168A15DA260A128A1162300A1629
:100368008A1519270A128A11E1290A128A11E2222A
:100378000A128A110A128A11A3270A128A110A1666
:100388008A1545260A128A1100300A168A15DA26B5
:100398000A128A1140300A168A1519270A128A1178
:1003A80014300A168A15DA260A128A11C3300A1678
:1003B8008A1519270A128A11BE298312031378088D
:1003C800643A0319E829E929B929E9290A128A119D
:1003D8001228F3290A128A118E250A128A11831209
:1003E80003137508013A0319FA29FB29EE290800B5
:10040000FE00FE1F082A83137E18831700080800C9
:100410000408FE0002308A007E088207003450344F
:10042000523420343234383420342D3420346D3476
:1004300054346F3475346334683420347734693419
:10044000743468342034543469346334203454347C
:1004500061346334203454346F34653400344334AD
:100460007934743472346F346E34203454346534D7
:10047000633468346E346F346C346F346734693489
:10048000653473342034533464346E34203442344D
:1004900068346434203420342034003463346F34BE
:1004A0006E34673472346134743475346C3461344E
:1004B000743469346F346E342134203400342A3477
:1004C0002A3470346C3461347934653472343134A4
:1004D0002034773469346E3473342A342A34003447
:1004E0002A342A3470346C3461347934653472348B
:1004F00032342034773469346E3473342A342A34F5
:10050000003450346C3461347934653472342034BE
:10051000323420343D3420346734723465346534E9
:100520006E34003450346C34613479346534723450
:10053000203431342034733474346134723474347C
:100540007334003450346C3461347934653472342B
:100550002034323427347334203474347534723494
:100560006E34003450346C34613479346534723410
:100570002034313427347334203474347534723475
:100580006E34003450346C346134793465347234F0
:100590002034313420343D342034723465346434B2
:1005A00000342A342A342A3464347234613477347F
:1005B0002A342A342A340034663469347234733469
:1005C000743400348B13121110100C309700073064
:1005D0009200BC308316031392003230831203134F
:1005E00095000030A9000030A8000F30A700A0300F
:1005F000A6000A168A156D270A128A11BC308316C6
:100600000313920032308312031395000030A900C7
:100610000030A8000F30A700A030A6000A168A15E7
:100620006D270A128A11B2308316031392003230FA
:100630008312031395000030A9000030A8000F308A
:10064000A700A030A6000A168A156D270A128A1183
:100650009E308316031392006430831203139500B7
:100660000030A9000030A8000F30A700A030A6007D
:100670000A168A156D270A128A119E3083160313F3
:10068000920064308312031395000030A9000030FB
:10069000A8000F30A700A030A6000A168A156D2703
:1006A0000A128A11B2308316031392003230831279
:1006B000031395000030A9000030A8000F30A700F8
:1006C000A030A6000A168A156D270A128A11BC30BE
:1006D0008316031392003230831203139500003007
:1006E000A9000030A8000F30A700A030A6000A160D
:1006F0008A156D270A128A11D330831603139200CC
:1007000032308312031395000030A9000030A80096
:100710000F30A700A030A6000A168A156D270A120E
:100720008A11EE30831603139200323083120313C2
:1007300095000030A9000030A8000F30A700A030BD
:10074000A6000A168A156D270A128A11EE30831642
:100750000313920032308312031395000030A90076
:100760000030A8000F30A700A030A6000A168A1596
:100770006D270A128A11D330831603139200323088
:100780008312031395000030A9000030A8000F3039
:10079000A700A030A6000A168A156D270A128A1132
:1007A000BC3083160313920032308312031395007A
:1007B0000030A9000030A8000F30A700A030A6002C
:1007C0000A168A156D270A128A11BC308316031384
:1007D000920032308312031395000030A9000030DC
:1007E000A8000F30A700A030A6000A168A156D27B2
:1007F0000A128A11D3308316031392003230831207
:10080000031395000030A9000030A8000730A700AE
:10081000D030A6000A168A156D270A128A11D33025
:1008200083160313920032308312031395000030B5
:10083000A9000030A8001F30A7004030A6000A160B
:100840008A156D270A128A11BC3083160313920091
:1008500032308312031395000030A9000030A80045
:100860000F30A700A030A6000A168A156D270A12BD
:100870008A11BC30831603139200323083120313A3
:1008800095000030A9000030A8000F30A700A0306C
:10089000A6000A168A156D270A128A11B23083162D
:1008A0000313920032308312031395000030A90025
:1008B0000030A8000F30A700A030A6000A168A1545
:1008C0006D270A128A119E3083160313920032306C
:1008D0008312031395000030A9000030A8000F30E8
:1008E000A700A030A6000A168A156D270A128A11E1
:1008F0009E30831603139200323083120313950047
:100900000030A9000030A8000F30A700A030A600DA
:100910000A168A156D270A128A11B230831603133C
:10092000920032308312031395000030A90000308A
:10093000A8000F30A700A030A6000A168A156D2760
:100940000A128A11BC3083160313920032308312CC
:10095000031395000030A9000030A8000F30A70055
:10096000A030A6000A168A156D270A128A11D33004
:100970008316031392003230831203139500003064
:10098000A9000030A8000F30A700A030A6000A166A
:100990008A156D270A128A11EE308316031392000E
:1009A00032308312031395000030A9000030A800F4
:1009B0000F30A700A030A6000A168A156D270A126C
:1009C0008A11EE3083160313920032308312031320
:1009D00095000030A9000030A8000F30A700A0301B
:1009E000A6000A168A156D270A128A11D3308316BB
:1009F0000313920032308312031395000030A900D4
:100A00000030A8000F30A700A030A6000A168A15F3
:100A10006D270A128A11BC308316031392003230FC
:100A20008312031395000030A9000030A8000F3096
:100A3000A700A030A6000A168A156D270A128A118F
:100A4000D3308316031392003230831203139500C0
:100A50000030A9000030A8000F30A700A030A60089
:100A60000A168A156D270A128A11EE3083160313AF
:100A7000920032308312031395000030A900003039
:100A8000A8000730A700D030A6000A168A156D27E7
:100A90000A128A11EE308316031392003230831249
:100AA000031395000030A9000030A8001F30A700F4
:100AB0004030A6000A168A156D270A128A11031003
:100AC0008312031300300318013097007630920030
:100AD000B430831603139200031083120313003003
:100AE0000318013095008C10831603138C14C53045
:100AF000831203139000E230831603138F008312D6
:100B000003138C13831603138C170A168A153026C9
:100B10000A128A11831203138B17080067088313C4
:100B2000013A031D942D952DCA2D4C08583A0319EE
:100B30009A2D9B2DA12D4C084F3A031DA02DA12DC0
:100B4000B02DF508031DA52DA62DAC2D03100030EA
:100B500003180130F500AF2DF5010314F50DCA2D72
:100B60000A168A11E0220A128A110A128A150A202C
:100B70000A128A1183120313F508031DC02DC12D1B
:100B8000C52DF5010314F50DCA2D0310003003180F
:100B90000130F5006808013A031DCF2DD02D052E38
:100BA0004D08583A0319D52DD62DDC2D4D084F3A56
:100BB000031DDB2DDC2DEB2DF508031DE02DE12DB4
:100BC000E72D0310003003180130F500EA2DF50180
:100BD0000314F50D052E0A168A11E0220A128A1155
:100BE0000A128A150A200A128A1183120313F508C1
:100BF000031DFB2DFC2D002EF5010314F50D052E14
:100C00000310003003180130F5006908013A031D94
:100C10000A2E0B2E402E4E08583A0319102E112E74
:100C2000172E4E084F3A031D162E172E262EF508A6
:100C3000031D1B2E1C2E222E031000300318013022
:100C4000F500252EF5010314F50D402E0A168A1124
:100C5000E0220A128A110A128A150A200A128A113F
:100C600083120313F508031D362E372E3B2EF50194
:100C70000314F50D402E0310003003180130F50069
:100C80006A08013A031D452E462E7B2E4F08583A1E
:100C900003194B2E4C2E522E4F084F3A031D512E46
:100CA000522E612EF508031D562E572E5D2E031071
:100CB000003003180130F500602EF5010314F50D26
:100CC0007B2E0A168A11E0220A128A110A128A154C
:100CD0000A200A128A1183120313F508031D712ECC
:100CE000722E762EF5010314F50D7B2E03100030C5
:100CF00003180130F5006B08013A031D802E812E88
:100D0000B62E5008583A0319862E872E8D2E50087D
:100D10004F3A031D8C2E8D2E9C2EF508031D912E0F
:100D2000922E982E0310003003180130F5009B2EF0
:100D3000F5010314F50DB62E0A168A11E0220A12E7
:100D40008A110A128A150A200A128A1183120313C1
:100D5000F508031DAC2EAD2EB12EF5010314F50DD3
:100D6000B62E0310003003180130F5006C08013A6C
:100D7000031DBB2EBC2EF12E5108583A0319C12E6B
:100D8000C22EC82E51084F3A031DC72EC82ED72E8B
:100D9000F508031DCC2ECD2ED32E031000300318E2
:100DA0000130F500D62EF5010314F50DF12E0A16CB
:100DB0008A11E0220A128A110A128A150A200A12DE
:100DC0008A1183120313F508031DE72EE82EEC2E7B
:100DD000F5010314F50DF12E031000300318013056
:100DE000F5006D08013A031DF62EF72E2C2F520840
:100DF000583A0319FC2EFD2E032F52084F3A031DBB
:100E0000022F032F122FF508031D072F082F0E2F77
:100E10000310003003180130F500112FF501031401
:100E2000F50D2C2F0A168A11E0220A128A110A12D5
:100E30008A150A200A128A1183120313F508031D6A
:100E4000222F232F272FF5010314F50D2C2F03102C
:100E5000003003180130F5006E08013A031D312FF0
:100E6000322F672F5308583A0319372F382F3E2F48
:100E700053084F3A031D3D2F3E2F4D2FF508031DFC
:100E8000422F432F492F0310003003180130F50083
:100E90004C2FF5010314F50D672F0A168A11E02275
:100EA0000A128A110A128A150A200A128A1183125A
:100EB0000313F508031D5D2F5E2F622FF501031448
:100EC000F50D672F0310003003180130F5006F088F
:100ED000013A031D6C2F6D2FA22F5408583A0319A5
:100EE000722F732F792F54084F3A031D782F792FC3
:100EF000882FF508031D7D2F7E2F842F03100030CF
:100F000003180130F500872FF5010314F50DA22F0A
:100F10000A168A11E0220A128A110A128A150A2078
:100F20000A128A1183120313F508031D982F992FB3
:100F30009D2FF5010314F50DA22F031000300318A7
:100F40000130F5000800831203138717071787166F
:100F50002430A3002308F700051485170517770828
:100F60000A168A11B6210A128A118312031377080E
:100F70000A168A114B220A128A1183120313770868
:100F80000A168A1121210A128A11831203130030D2
:100F9000A9000030A8000D30A700AC30A6000A164A
:100FA0008A156D270A128A110A168A1100200A1260
:100FB0008A11831203130030A9000030A8000D30FD
:100FC000A700AC30A6000A168A156D270A128A11EE
:100FD0000800A5000914250886000030A90000308B
:100FE000A8000030A7003230A6000A168A156D2727
:100FF0000A128A110A168A15F8260A128A1108009E
:101014008312031387160717871705108513051303
:101024000030A3000030A4001728490883130A16CF
:101034008A11B6210A128A15831203134A080A1662
:101044008A114B220A128A15831203134B080A16BB
:101054008A1121210A128A15831203132308831388
:101064004C3E840000084F3A031D39283A2854287E
:1010740023084F3E840000084F3A031D42284328AA
:1010840054282308523E840000084F3A031D4B287D
:101094004C2854284930A5002308493E84002508DB
:1010A4008000D42F23084C3E840000084F3A031DCF
:1010B4005C285D28772823084F3E840000084F3AB7
:1010C400031D6528662877282308523E84000008FB
:1010D400203A031D6E286F2877284830A50023087E
:1010E400493E840025088000D42F23084C3E840008
:1010F40000084F3A031D7F2880289A2823084F3E72
:1011040084000008203A031D882889289A28230887
:10111400523E840000084F3A031D912892289A28D1
:101124004130A5002308493E840025088000D42FBF
:1011340023084C3E840000084F3A031DA228A3282C
:10114400BD2823084F3E84000008203A031DAB2825
:10115400AC28BD282308523E84000008203A031D11
:10116400B428B528BD284030A5002308493E840092
:1011740025088000D42F23084C3E84000008203A20
:10118400031DC528C628E02823084F3E8400000814
:101194004F3A031DCE28CF28E0282308523E84006E
:1011A40000084F3A031DD728D828E0280930A500A5
:1011B4002308493E840025088000D42F23084C3E90
:1011C40084000008203A031DE828E928032923089D
:1011D4004F3E840000084F3A031DF128F2280329EA
:1011E4002308523E84000008203A031DFA28FB28F5
:1011F40003290830A5002308493E840025088000FF
:10120400D42F23084C3E84000008203A031D0B29E8
:101214000C29252923084F3E84000008203A031D89
:101224001429152925292308523E840000084F3A21
:10123400031D1D291E2925292308493E84008001F8
:101244000314800DD42F23084C3E840000084F3A29
:10125400031D2D292E29482923084F3E8400000808
:101264004F3A031D3629372948292308523E840062
:101274000008583A031D3F29402948294A30A5004F
:101284002308493E840025088000D42F23084C3EBF
:10129400840000084F3A031D502951296B29230863
:1012A4004F3E840000084F3A031D59295A296B29DF
:1012B4002308523E84000008203A031D6229632952
:1012C4006B294830A5002308493E84002508800086
:1012D400D42F23084C3E840000084F3A031D732981
:1012E40074298E2923084F3E84000008203A031DE8
:1012F4007C297D298E292308523E84000008583A0F
:10130400031D852986298E294230A5002308493EDC
:10131400840025088000D42F23084C3E8400000854
:101324004F3A031D96299729B12923084F3E84007B
:101334000008203A031D9F29A029B1292308523E01
:1013440084000008203A031DA829A929B1294030A6
:10135400A5002308493E840025088000D42F2308D3
:101364004C3E84000008203A031DB929BA29D42927
:1013740023084F3E840000084F3A031DC229C329A5
:10138400D4292308523E84000008583A031DCB296F
:10139400CC29D4290A30A5002308493E8400250815
:1013A4008000D42F23084C3E84000008203A031DFB
:1013B400DC29DD29F72923084F3E840000084F3A31
:1013C400031DE529E629F7292308523E8400000875
:1013D400203A031DEE29EF29F7290830A500230838
:1013E400493E840025088000D42F23084C3E840005
:1013F4000008203A031DFF29002A1A2A23084F3E19
:1014040084000008203A031D082A092A1A2A2308FE
:10141400523E84000008583A031D112A122A1A2A3F
:101424000230A5002308493E840025088000D42FFB
:1014340023084C3E840000084F3A031D222A232A25
:101444003D2A23084F3E84000008583A031D2B2AE6
:101454002C2A3D2A2308523E840000084F3A031DDB
:10146400342A352A3D2A5130A5002308493E8400F8
:1014740025088000D42F23084C3E840000084F3AEE
:10148400031D452A462A602A23084F3E840000088B
:10149400583A031D4E2A4F2A602A2308523E8400DC
:1014A4000008203A031D572A582A602A5030A50004
:1014B4002308493E840025088000D42F23084C3E8D
:1014C400840000084F3A031D682A692A832A2308E6
:1014D4004F3E84000008203A031D712A722A832A91
:1014E4002308523E840000084F3A031D7A2A7B2ABF
:1014F400832A4130A5002308493E84002508800042
:10150400D42F23084C3E840000084F3A031D8B2A35
:101514008C2AA62A23084F3E84000008203A031D83
:10152400942A952AA62A2308523E84000008203AC9
:10153400031D9D2A9E2AA62A4030A5002308493E61
:10154400840025088000D42F23084C3E8400000822
:10155400203A031DAE2AAF2AC92A23084F3E84002D
:101564000008583A031DB72AB82AC92A2308523E4C
:10157400840000084F3A031DC02AC12AC92A113029
:10158400A5002308493E840025088000D42F2308A1
:101594004C3E84000008203A031DD12AD22AEC2AAA
:1015A40023084F3E84000008583A031DDA2ADB2A38
:1015B400EC2A2308523E84000008203A031DE32A43
:1015C400E42AEC2A1030A5002308493E84002508AB
:1015D4008000D42F23084C3E84000008203A031DC9
:1015E400F42AF52A0E2B23084F3E84000008203AE3
:1015F400031DFD2AFE2A0E2B2308523E84000008F8
:101604004F3A031D062B072B0E2B2308493E84005B
:1016140080010314800DD42F23084C3E840000085D
:101624004F3A031D162B172B312B23084F3E8400F2
:101634000008583A031D1F2B202B312B2308523E40
:1016440084000008583A031D282B292B312B5230D3
:10165400A5002308493E840025088000D42F2308D0
:101664004C3E840000084F3A031D392B3A2B542B6F
:1016740023084F3E84000008583A031D422B432B95
:10168400542B2308523E84000008203A031D4B2BA0
:101694004C2B542B5030A5002308493E84002508C8
:1016A4008000D42F23084C3E840000084F3A031DC9
:1016B4005C2B5D2B772B23084F3E84000008203AD7
:1016C400031D652B662B772B2308523E84000008EC
:1016D400583A031D6E2B6F2B772B4230A50023083D
:1016E400493E840025088000D42F23084C3E840002
:1016F40000084F3A031D7F2B802B9A2B23084F3E63
:1017040084000008203A031D882B892B9A2B230878
:10171400523E84000008203A031D912B922B9A2BF1
:101724004030A5002308493E840025088000D42FBA
:1017340023084C3E84000008203A031DA22BA32B4F
:10174400BD2B23084F3E84000008583A031DAB2BE1
:10175400AC2BBD2B2308523E84000008583A031DCD
:10176400B42BB52BBD2B1230A5002308493E8400B1
:1017740025088000D42F23084C3E84000008203A1A
:10178400031DC52BC62BE02B23084F3E8400000805
:10179400583A031DCE2BCF2BE02B2308523E840056
:1017A4000008203A031DD72BD82BE02B1030A500BE
:1017B4002308493E840025088000D42F23084C3E8A
:1017C40084000008203A031DE82BE92B032C23088E
:1017D4004F3E84000008203A031DF12BF22B032C0A
:1017E4002308523E84000008583A031DFA2BFB2BB1
:1017F400032C0230A5002308493E840025088000FC
:10180400D42F23084C3E84000008583A031D0B2CA7
:101814000C2C262C23084F3E840000084F3A031D4D
:10182400142C152C262C2308523E840000084F3A11
:10183400031D1D2C1E2C262C8930A5002308493E8F
:10184400840025088000D42F23084C3E840000081F
:10185400583A031D2E2C2F2C492C23084F3E84006C
:1018640000084F3A031D372C382C492C2308523ECC
:1018740084000008203A031D402C412C492C883058
:10188400A5002308493E840025088000D42F23089E
:101894004C3E84000008583A031D512C522C6C2CE9
:1018A40023084F3E84000008203A031D5A2C5B2C69
:1018B4006C2C2308523E840000084F3A031D632C0D
:1018C400642C6C2C8130A5002308493E8400250833
:1018D4008000D42F23084C3E84000008583A031D8E
:1018E400742C752C8F2C23084F3E84000008203A5A
:1018F400031D7D2C7E2C8F2C2308523E840000086F
:10190400203A031D862C872C8F2C8030A5002308B9
:10191400493E840025088000D42F23084C3E8400CF
:101924000008203A031D972C982CB22C23084F3E14
:10193400840000084F3A031DA02CA12CB22C2308CC
:10194400523E840000084F3A031DA92CAA2CB22C45
:101954000930A5002308493E840025088000D42FBF
:1019640023084C3E84000008203A031DBA2CBB2CEB
:10197400D52C23084F3E840000084F3A031DC32C86
:10198400C42CD52C2308523E84000008203A031DA1
:10199400CC2CCD2CD52C0830A5002308493E84003E
:1019A40025088000D42F23084C3E84000008203AE8
:1019B400031DDD2CDE2CF72C23084F3E8400000889
:1019C400203A031DE62CE72CF72C2308523E840012
:1019D40000084F3A031DEF2CF02CF72C2308493E46
:1019E400840080010314800DD42F23084C3E84000E
:1019F4000008583A031DFF2C002D1A2D23084F3ED2
:101A0400840000084F3A031D082D092D1A2D2308C0
:101A1400523E84000008583A031D112D122D1A2D30
:101A24008A30A5002308493E840025088000D42F6D
:101A340023084C3E84000008583A031D222D232D10
:101A44003D2D23084F3E840000084F3A031D2B2DE3
:101A54002C2D3D2D2308523E84000008203A031DFE
:101A6400342D352D3D2D8830A5002308493E8400B2
:101A740025088000D42F23084C3E84000008583ADF
:101A8400031D452D462D602D23084F3E840000087C
:101A9400203A031D4E2D4F2D602D2308523E840005
:101AA4000008583A031D572D582D602D8230A5008B
:101AB4002308493E840025088000D42F23084C3E87
:101AC40084000008583A031D682D692D832D2308CE
:101AD4004F3E84000008203A031D712D722D832D82
:101AE4002308523E84000008203A031D7A2D7B2DE2
:101AF400832D8030A5002308493E840025088000FA
:101B0400D42F23084C3E84000008203A031D8B2D5B
:101B14008C2DA62D23084F3E840000084F3A031D48
:101B2400942D952DA62D2308523E84000008583A82
:101B3400031D9D2D9E2DA62D0A30A5002308493E88
:101B4400840025088000D42F23084C3E840000081C
:101B5400203A031DAE2DAF2DC92D23084F3E84001E
:101B640000084F3A031DB72DB82DC92D2308523E46
:101B740084000008203A031DC02DC12DC92D083052
:101B8400A5002308493E840025088000D42F23089B
:101B94004C3E84000008203A031DD12DD22DEC2D9B
:101BA40023084F3E84000008203A031DDA2DDB2D64
:101BB400EC2D2308523E84000008583A031DE32DFF
:101BC400E42DEC2D0230A5002308493E84002508AD
:101BD4008000D42F23084C3E84000008583A031D8B
:101BE400F42DF52D0F2E23084F3E84000008583A9B
:101BF400031DFD2DFE2D0F2E2308523E84000008E8
:101C04004F3A031D062E072E0F2E9130A5002308F0
:101C1400493E840025088000D42F23084C3E8400CC
:101C24000008583A031D172E182E322E23084F3E53
:101C340084000008583A031D202E212E322E23083A
:101C4400523E84000008203A031D292E2A2E322EEB
:101C54009030A5002308493E840025088000D42F35
:101C640023084C3E84000008583A031D3A2E3B2EAC
:101C7400552E23084F3E84000008203A031D432EAE
:101C8400442E552E2308523E840000084F3A031D6B
:101C94004C2E4D2E552E8130A5002308493E84003C
:101CA40025088000D42F23084C3E84000008583AAD
:101CB400031D5D2E5E2E782E23084F3E84000008FF
:101CC400203A031D662E672E782E2308523E840088
:101CD4000008203A031D6F2E702E782E8030A50048
:101CE4002308493E840025088000D42F23084C3E55
:101CF40084000008203A031D802E812E9B2E230889
:101D04004F3E84000008583A031D892E8A2E9B2ECC
:101D14002308523E840000084F3A031D922E932E4E
:101D24009B2E1130A5002308493E8400250880001D
:101D3400D42F23084C3E84000008203A031DA32E10
:101D4400A42EBE2E23084F3E84000008583A031DDB
:101D5400AC2EAD2EBE2E2308523E84000008203A3D
:101D6400031DB52EB62EBE2E1030A5002308493E05
:101D7400840025088000D42F23084C3E84000008EA
:101D8400203A031DC62EC72EE02E23084F3E8400A2
:101D94000008203A031DCF2ED02EE02E2308523EF9
:101DA400840000084F3A031DD82ED92EE02E2308B4
:101DB400493E840080010314800DD42F23084C3E37
:101DC40084000008583A031DE82EE92E032F230847
:101DD4004F3E84000008583A031DF12EF22E032FC3
:101DE4002308523E84000008583A031DFA2EFB2EA5
:101DF400032F9230A5002308493E84002508800063
:101E0400D42F23084C3E84000008583A031D0B2F9E
:101E14000C2F262F23084F3E84000008583A031D38
:101E2400142F152F262F2308523E84000008203A31
:101E3400031D1D2F1E2F262F9030A5002308493E79
:101E4400840025088000D42F23084C3E8400000819
:101E5400583A031D2E2F2F2F492F23084F3E84005D
:101E64000008203A031D372F382F492F2308523EEC
:101E740084000008583A031D402F412F492F823017
:101E8400A5002308493E840025088000D42F230898
:101E94004C3E84000008583A031D512F522F6C2FDA
:101EA40023084F3E84000008203A031D5A2F5B2F5D
:101EB4006C2F2308523E84000008203A031D632F30
:101EC400642F6C2F8030A5002308493E8400250828
:101ED4008000D42F23084C3E84000008203A031DC0
:101EE400742F752F8F2F23084F3E84000008583A13
:101EF400031D7D2F7E2F8F2F2308523E8400000860
:101F0400583A031D862F872F8F2F1230A5002308E0
:101F1400493E840025088000D42F23084C3E8400C9
:101F24000008203A031D972F982FB22F23084F3E05
:101F340084000008583A031DA02FA12FB22F2308B4
:101F4400523E84000008203A031DA92FAA2FB22F65
:101F54001030A5002308493E840025088000D42FB2
:101F640023084C3E84000008203A031DBA2FBB2FDF
:101F7400D42F23084F3E84000008203A031DC32FAA
:101F8400C42FD42F2308523E84000008583A031D5E
:101F9400CC2FCD2FD42F0230A5002308493E840036
:101FA4002508800049080A168A11B6210A128A15E2
:101FB400831203134A080A168A114B220A128A153D
:101FC400831203134B080A168A1121210A128A1557
:101FD400831203130130A3070318A40A0030A407D3
:101FE4002408803AA50080302502031DFB2F03300E
:101FF4002302031CFE2FFF2F17280800031083124F
:102004000313003003180130F7000510851305137E
:1020140087130713871277080A168A11B6210A163E
:102024008A118312031377080A168A114B220A169F
:102034008A118312031377080A168A1121210A16BA
:102044008A1108000130BF003F08F6070930760204
:10205400031C2D282E2834280310003003180130C7
:10206400F6003428F608031D382839283D2808309E
:1020740083120317890003137608013A031D4328CA
:10208400442848280930831203178900031376086B
:10209400023A031D4E284F2853280A30831203178F
:1020A400890003137608033A031D59285A285E2829
:1020B4000B3083120317890003137608043A031DB7
:1020C4006428652869280C308312031789000313D8
:1020D4007608053A031D6F28702874280D30831282
:1020E4000317890003137608063A031D7A287B2810
:1020F4007F280E3083120317890003137608073AEA
:10210400031D852886288A280F3083120317890027
:1021140003137608083A031D902891289528063061
:10212400831203178900080003108312031300307D
:1021340003180130F60009307602031CA228A328F4
:10214400A428C3287608A8002807DE3E84000030AF
:1021540083138000840A003080007608A8002807D2
:10216400553E840000308000840A00308000013035
:10217400A8002808F60709307602031CC228C328E1
:10218400A4280030A4000030A500C8280030A60010
:102194000030A700CD282030A8000330AE0024086A
:1021A40083130A168A15BE260A168A114C3E831218
:1021B4000313260784008313280880000130A60730
:1021C4000318A70A0030A7072708803AA800803020
:1021D4002802031DEF2803302602031CF228F328EB
:1021E400CD280130A4070318A50A0030A507250847
:1021F400803AA80080302802031D022903302402FB
:10220400031C05290629C82876309200B4308316A9
:1022140003139200831203138C10831603138C147C
:10222400C530831203139000E230831603138F002A
:10223400831203138C13831603138C170800A60050
:10224400261C252926292829851429298510851540
:102254008511260883130239A7000310270C013ABD
:10226400031D352936293829851439298510851502
:10227400851126080439A70002300310A70CFF3E7D
:10228400031D3F292708013A031D49294A294C29DE
:1022940085144D2985108515851126080839A70050
:1022A40003300310A70CFF3E031D53292708013AEE
:1022B400031D5D295E296029851461298510851512
:1022C400851126081039A70004300310A70CFF3E1F
:1022D400031D67292708013A031D712972297429EE
:1022E4008514752985108515851126082039A700C0
:1022F40005300310A70CFF3E031D7B292708013A74
:10230400031D852986298829851489298510851521
:10231400851126084039A70006300310A70CFF3E9C
:10232400031D8F292708013A031D99299A299C29FD
:1023340085149D2985108515851126088039A700E7
:1023440007300310A70CFF3E031DA3292708013AF9
:10235400031DAD29AE29B0298514B1298510851531
:102364008511051505110800A600261CBA29BB29EC
:10237400BD298714BE298710871587112608831362
:102384000239A7000310270C013A031DCA29CB29DF
:10239400CD298714CE29871087158711260804397B
:1023A400A70002300310A70CFF3E031DD429270801
:1023B400013A031DDE29DF29E1298714E229871068
:1023C4008715871126080839A70003300310A70CC6
:1023D400FF3E031DE8292708013A031DF229F329CA
:1023E400F5298714F62987108715871126081039CF
:1023F400A70004300310A70CFF3E031DFC29270887
:10240400013A031D062A072A092A87140A2A871073
:102414008715871126082039A70005300310A70C5B
:10242400FF3E031D102A2708013A031D1A2A1B2AFE
:102434001D2A87141E2A87108715871126084039FC
:10244400A70006300310A70CFF3E031D242A27080B
:10245400013A031D2E2A2F2A312A8714322A871083
:102464008715871126088039A70007300310A70CA9
:10247400FF3E031D382A2708013A031D422A432A36
:10248400452A8714462A87108715871107160712CD
:102494000800A600261C4F2A502A522A8516532AC1
:1024A400851207140710260883130239A7000310A6
:1024B400270C013A031D5F2A602A622A8516632AC3
:1024C40085120714071026080439A70002300310E8
:1024D400A70CFF3E031D692A2708013A031D732A2E
:1024E400742A762A8516772A851207140710260877
:1024F4000839A70003300310A70CFF3E031D7D2AF3
:102504002708013A031D872A882A8A2A85168B2AD6
:1025140085120714071026081039A7000430031089
:10252400A70CFF3E031D912A2708013A031D9B2A8D
:102534009C2A9E2A85169F2A8512071407102608AE
:102544002039A70005300310A70CFF3E031DA52A60
:102554002708013A031DAF2AB02AB22A8516B32AE6
:1025640085120714071026084039A7000630031007
:10257400A70CFF3E031DB92A2708013A031DC32AED
:10258400C42AC62A8516C72A8512071407102608E6
:102594008039A70007300310A70CFF3E031DCD2A86
:1025A4002708013A031DD72AD82ADA2A8516DB2AF6
:1025B400851207140710091509110800F508031DF1
:1025C400E42AE52A412B67088313013A031DEB2A09
:1025D400EC2AF02A5830A3002308CC006808013AFA
:1025E400031DF52AF62AFA2A5830A3002308CD0041
:1025F4006908013A031DFF2A002B042B5830A3005D
:102604002308CE006A08013A031D092B0A2B0E2B5E
:102614005830A3002308CF006B08013A031D132B85
:10262400142B182B5830A3002308D0006C08013A4F
:10263400031D1D2B1E2B222B5830A3002308D10071
:102644006D08013A031D272B282B2C2B5830A3008F
:102654002308D2006E08013A031D312B322B362B8E
:102664005830A3002308D3006F08013A031D3B2B05
:102674003C2B402B5830A3002308D400A22B750810
:10268400013A031D462B472BA22B67088313013AFB
:10269400031D4D2B4E2B522B4F30A3002308CC008F
:1026A4006808013A031D572B582B5C2B4F30A300AD
:1026B4002308CD006908013A031D612B622B662BA8
:1026C4004F30A3002308CE006A08013A031D6B2B88
:1026D4006C2B702B4F30A3002308CF006B08013AFA
:1026E400031D752B762B7A2B4F30A3002308D000C3
:1026F4006C08013A031D7F2B802B842B4F30A300E1
:102704002308D1006D08013A031D892B8A2B8E2BD7
:102714004F30A3002308D2006E08013A031D932B07
:10272400942B982B4F30A3002308D3006F08013A51
:10273400031D9D2B9E2BA22B4F30A3002308D400F6
:1027440008008B13121110100C3097000730920000
:10275400EE30831603139200323083120313950074
:102764000030A9000030A8000730A700D030A60030
:102774000A168A156D270A168A11D3308316031395
:10278400920032308312031395000030A900003008
:10279400A8000730A700D030A6000A168A156D27B6
:1027A4000A168A11BD308316031392006430831213
:1027B400031395000030A9000030A8000730A700DB
:1027C400D030A6000A168A156D270A168A11B2306F
:1027D40083160313920064308312031395000030B0
:1027E400A9000030A8000730A700D030A6000A16C0
:1027F4008A156D270A168A119E30831603139200D8
:1028040032308312031395000030A9000030A80071
:102814000730A700D030A6000A168A156D270A16BD
:102824008A118D30831603139200323083120313FE
:1028340095000030A9000030A8000730A700D03070
:10284400A6000A168A156D270A168A117D3083168A
:102854000313920032308312031395000030A90051
:102864000030A8000730A700D030A6000A168A1549
:102874006D270A168A1176308316031392003230BC
:102884008312031395000030A9000030A8000F3014
:10289400A700A030A6000A168A156D270A168A1109
:1028A40003108312031300300318013097007630AD
:1028B4009200B4308316031392000310831203139F
:1028C40000300318013095008C10831603138C1408
:1028D400C530831203139000E230831603138F0074
:1028E400831203138C13831603138C170A168A1589
:1028F40030260A168A11831203138B17080000303E
:1029040083120313A5000030A6000030A700003096
:10291400A8008C2C0330AE00270883130A168A15EE
:10292400BE260A168A11013E4C3E84008313000819
:1029340083120313AD000330AE0027080A168A156C
:10294400BE260A168A114C3E8400831300088312A3
:1029540003132D06031DAF2CB02CE02C0330AE0066
:1029640027080A168A15BE260A168A11023E4C3E0C
:1029740084008313000883120313AD000330AE00F8
:1029840027080A168A15BE260A168A114C3E8400A8
:1029940083130008831203132D06031DD22CD32C9A
:1029A400E02C0330AE0027080A168A15BE260A1644
:1029B4008A114C3E840083130008892D27084F3E5A
:1029C40084000008AD0027084C3E840000082D0652
:1029D400031DED2CEE2C012D2708523E8400000827
:1029E400AD0027084C3E840000082D06031DFB2C77
:1029F400FC2C012D27084C3E84000008892D50082A
:102A04004C06031D062D072D0F2D54084C06031DDF
:102A14000C2D0D2D0F2D4C08892D4E085006031D2D
:102A2400142D152D1D2D4E085206031D1A2D1B2D78
:102A34001D2D4E08892D0130A7070318A80A003060
:102A4400A8072808803AAD0080302D02031D2C2DE4
:102A540003302702031C2F2D302D8C2C0030A900AD
:102A64000030AA00352D0030AB000030AC003A2D08
:102A74000330AE0029080A168A15BE260A168A11E2
:102A84004C3E831203132B07840083130008203A5F
:102A9400031D4D2D4E2D552D0130A5070318A60AF3
:102AA4000030A607552D0130AB070318AC0A0030DF
:102AB400AC072C08803AAD0080302D02031D642D34
:102AC40003302B02031C672D682D3A2D0130A90712
:102AD4000318AA0A0030AA072A08803AAD008030F9
:102AE4002D02031D772D03302902031C7A2D7B2D23
:102AF400352D26082504031D802D812D852D643058
:102B0400A4006430892D2030A4002030892D0800D1
:102B14008B13121110100C3097000730920076308E
:102B2400831603139200323083120313950000308E
:102B3400A9000030A8000F30A700A030A6000A1694
:102B44008A156D270A168A117D30831603139200A5
:102B540032308312031395000030A9000030A8001E
:102B64000F30A700A030A6000A168A156D270A1692
:102B74008A119E308316031392003230831203139A
:102B840095000030A9000030A8000F30A700A03045
:102B9400A6000A168A156D270A168A11763083163E
:102BA4000313920064308312031395000030A900CC
:102BB4000030A8001F30A7004030A6000A168A156E
:102BC4006D270A168A117D30831603139200643030
:102BD4008312031395000030A9000030A8001F30B1
:102BE400A7004030A6000A168A156D270A168A1116
:102BF400BD30831603139200323083120313950001
:102C04000030A9000030A8000F30A700A030A600B3
:102C14000A168A156D270A168A11031083160313E0
:102C240000300318013092003230831203139500F0
:102C34000030A9000030A8000730A700D030A6005B
:102C44000A168A156D270A168A117630831603131D
:102C5400920032308312031395000030A900003033
:102C6400A8000F30A700A030A6000A168A156D2709
:102C74000A168A11EE30831603139200323083123F
:102C8400031395000030A9000030A8000F30A700FE
:102C9400A030A6000A168A156D270A168A119E30DE
:102CA400831603139200323083120313950000300D
:102CB400A9000030A8000F30A700A030A6000A1613
:102CC4008A156D270A168A118D3083160313920014
:102CD40032308312031395000030A9000030A8009D
:102CE4001F30A7004030A6000A168A156D270A1661
:102CF4008A11763083160313920032308312031341
:102D040095000030A9000030A8001F30A700403013
:102D1400A6000A168A156D270A168A110310831253
:102D24000313003003180130970076309200B4305A
:102D34008316031392000310831203130030031845
:102D4400013095008C10831603138C14C530831244
:102D540003139000E230831603138F0083120313CE
:102D64008C13831603138C170A168A1530260A1639
:102D74008A11831203138B1708000F08B800B901D6
:102D8400083084000310B80DB90D840BC42E0E084E
:102D94003807F10039080318390AF2007208B9003B
:102DA4007108B800043084000310B80DB90D840B09
:102DB400D62E3808F1003908F2007608B800380732
:102DC400553E8400710883138000840A72088000D1
:102DD4007608B8003807DE3E84000008B9000130E8
:102DE40084070008BA0004300310BA0CB90CFF3E83
:102DF400031DF62E3908F3003A08F4007608B800EB
:102E04003807DE3E84000008B9000130840700085A
:102E1400BA0002300310BA0CB90CFF3E031D0C2F8C
:102E24003908FB003A08FC007B08F901F9077C0823
:102E3400FA01FA077608B8003807DE3E8400000875
:102E4400B900013084070008BA0079083902BB00D0
:102E54007A08031C7A0A3A02BC003C087202031D79
:102E6400352F3B0871020318382F392F7D2F5F2F20
:102E7400E7010314E70D7C2FE8010314E80D7C2F10
:102E8400E9010314E90D7C2FEA010314EA0D7C2FF8
:102E9400EB010314EB0D7C2FEC010314EC0D7C2FE0
:102EA400ED010314ED0D7C2FEE010314EE0D7C2FC8
:102EB400EF010314EF0D7C2F7C2F7608003A0319E1
:102EC4003A2F013A03193E2F033A0319422F013ACC
:102ED4000319462F073A03194A2F013A03194E2FB3
:102EE400033A0319522F013A0319562F0F3A0319C3
:102EF4005A2F5E2FF52FB52F031000300318013021
:102F0400E700D22F0310003003180130E800D22F5D
:102F14000310003003180130E900D22F03100030F1
:102F240003180130EA00D22F0310003003180130D7
:102F3400EB00D22F0310003003180130EC00D22F25
:102F44000310003003180130ED00D22F03100030BD
:102F540003180130EE00D22F0310003003180130A3
:102F6400EF00D22FD22F7608003A03197E2F013AB0
:102F74000319842F033A03198A2F013A0319902F56
:102F8400073A0319962F013A03199C2F033A0319A0
:102F9400A22F013A0319A82F0F3A0319AE2FB42F09
:102FA4007208B9007108B80004300310B90CB80CE9
:102FB400FF3E031DD72F73083802BA007408031CA0
:102FC400740A3902BB007608BC003C07DE3E84006C
:102FD4003A088007840F00080318000ABD003B0864
:102FE4003D07800084030A168A1124200A168A11D8
:0C2FF4000A168A151B260A168A1108000E
:103C1C00142E0A128A118E250A168A158312031382
:103C2C00F508031D1A2E0F2E080003108312031320
:103C3C000030031801308E000310003003180130DF
:103C4C008F00031000300318013091008C101014F9
:103C5C0012150800031083120313003003180130EF
:103C6C008E0003100030031801308F000310003059
:103C7C000318013091008C1010141215080001303B
:103C8C000A168A15A4260A168A1583120313003005
:103C9C00A9000030A8000030A7003230A6000A1698
:103CAC008A156D270A168A15080018300A168A1507
:103CBC00A4260A168A15831203130030A9000030BB
:103CCC00A8001730A7007030A6000A168A156D27B9
:103CDC000A168A1508007F2E0A168A150E260A1651
:103CEC008A15892E0A128A11ED210A168A15892E37
:103CFC00892E831203137508003A0319722E013AA8
:103D0C000319782E7E2E0800932E121110108C138E
:103D1C000A168A11BF260A168A15831203138C1BE6
:103D2C00982E992E8B2E3708FE0036088A003508FF
:103D3C00840034088300FF0E7F0E090083120313E6
:103D4C00A40009102408831386000030A900003059
:103D5C00A8000030A7003230A6000A168A156D277D
:103D6C000A168A150A168A15F8260A168A150800E4
:103D7C00AF000310003003180130B0002F1CC72E09
:103D8C00C82ECD2E2E088313B1003108B0070310B6
:103D9C00AE0D0310AF0CAF08031DD52ED62EC42EBE
:103DAC0030088313D92E080083120313A30010309C
:103DBC0023020318E22EE32EEC2E23088313803EFD
:103DCC000A168A15A4260A168A15F72E23088313B9
:103DDC00EC3EA3002308C03E0A168A15A4260A1638
:103DEC008A1508008312031389140030A9000030CF
:103DFC00A8000030A7003230A6000A168A156D27DD
:103E0C000A168A158312031389100030A90000309A
:103E1C00A8000030A7003230A6000A168A156D27BC
:103E2C000A168A15080083120313A3002E2F2308E9
:103E3C000A128A1109220A168A150A128A11E9270E
:103E4C000A168A15013083120313A4002408A30751
:103E5C0083120313A308031D342F402F230883134D
:103E6C000A128A1109220A168A150038031D3F2FDF
:103E7C00402F1D2F0800003083120313B2000030B6
:103E8C00B3002E1C4A2F4B2F512F3008B2070318AA
:103E9C00B30A3108B30701300310B00DB10DFF3E6A
:103EAC00031D522F01300310AF0CAE0CFF3E031D4F
:103EBC00592F2F082E04031D642F652F472F32080E
:103ECC00AE01AE073308AF01AF076C2F080029080D
:103EDC00280427042604031D742F752F762F9A2F80
:103EEC000130AA000030AB000030AC000030AD0057
:103EFC002A08A6022B08031C2B0F852F862FA7023E
:103F0C002C08031C2C0F8B2F8C2FA8022D08031CA4
:103F1C002D0F912F922FA90229082804270426047B
:103F2C00031D992F9A2F762F080010308316031338
:103F3C008500031000300318013086000310003098
:103F4C00031801308700FF3088000310003003187D
:103F5C000130890003108312031300300318013061
:103F6C008600031000300318013089000A168A11EC
:103F7C0000200A168A1510308316031785000310CB
:103F8C000030031801308600031000300318013094
:103F9C00890088018803031083120313003003186F
:103FAC000130F7000310003003180130F500031046
:103FBC00003003180130F600103083160313900004
:103FCC00831203138B178D3083120317880008306C
:103FDC0089000A168A1196200A168A150A168A1161
:103FEC0081240A168A1583120313A3002308F800F0
:043FFC000B17080097
:02400E00E43C90
:00000001FF
