:060000000A128A11122809
:10000800FE000308F8000408F9000A08FA00831241
:1000180003137F08FB000A168A15132E0A168A1581
:10002800B02D00308A000408840A82070034503456
:10003800523420343234383420342D3420346D3462
:1000480054346F3475346334683420347734693405
:100058007434683420345434693463342034543468
:1000680061346334203454346F3465340034433499
:100078007934743472346F346E34203454346534C3
:10008800633468346E346F346C346F346734693475
:10009800653473342034533464346E342034423439
:1000A80068346434203420342034003463346F34AA
:1000B8006E34673472346134743475346C3461343A
:1000C800743469346F346E342134203400342A3463
:1000D8002A3470346C346134793465347234313490
:1000E8002034773469346E3473342A342A34003433
:1000F8002A342A3470346C34613479346534723477
:1001080032342034773469346E3473342A342A34E0
:10011800003450346C3461347934653472342034AA
:10012800323420343D3420346734723465346534D5
:100138006E34003450346C3461347934653472343C
:1001480020343134273473342034743475347234A1
:100158006E34003450346C3461347934653472341C
:100168002034323427347334203474347534723480
:100178006E34003450346C346134793465347234FC
:100188002034313420347334743461347234743428
:100198007334003450346C346134793465347234D7
:1001A8002034313420343D3420347234653464349E
:1001B80000342A342A342A3464347234613477346B
:1001C8002A342A342A340034663469347234733455
:1001D800743400348B1383120313121110100C3073
:1001E800970007309200BC30831603139200323018
:1001F8008312031395000030D5000030D4000F306F
:10020800D300A030D2000A168A15DE260A128A11F7
:10021800BC30831603139200323083120313950007
:100228000030D5000030D4000F30D300A030D20009
:100238000A168A15DE260A128A11B23083160313AB
:10024800920032308312031395000030D50000303D
:10025800D4000F30D300A030D2000A168A15DE264B
:100268000A128A119E308316031392006430831297
:10027800031395000030D5000030D4000F30D300B0
:10028800A030D2000A168A15DE260A128A119E307C
:100298008316031392006430831203139500003011
:1002A800D5000030D4000F30D300A030D2000A1699
:1002B8008A15DE260A128A11B230831603139200B9
:1002C80032308312031395000030D5000030D4007B
:1002D8000F30D300A030D2000A168A15DE260A1283
:1002E8008A11BC3083160313920032308312031331
:1002F80095000030D5000030D4000F30D300A03076
:10030800D2000A168A15DE260A128A11D3308316FD
:100318000313920032308312031395000030D50086
:100328000030D4000F30D300A030D2000A168A154E
:10033800DE260A128A11EE30831603139200323039
:100348008312031395000030D5000030D4000F301D
:10035800D300A030D2000A168A15DE260A128A11A6
:10036800EE30831603139200323083120313950084
:100378000030D5000030D4000F30D300A030D200B8
:100388000A168A15DE260A128A11D3308316031339
:10039800920032308312031395000030D5000030EC
:1003A800D4000F30D300A030D2000A168A15DE26FA
:1003B8000A128A11BC30831603139200323083125A
:1003C800031395000030D5000030D4000F30D3005F
:1003D800A030D2000A168A15DE260A128A11BC300D
:1003E80083160313920032308312031395000030F2
:1003F800D5000030D4000F30D300A030D2000A1648
:100408008A15DE260A128A11D33083160313920046
:1004180032308312031395000030D5000030D40029
:100428000730D300D030D2000A168A15DE260A1209
:100438008A11D330831603139200323083120313C8
:1004480095000030D5000030D4001F30D300403074
:10045800D2000A168A15DE260A128A11BC308316C3
:100468000313920032308312031395000030D50035
:100478000030D4000F30D300A030D2000A168A15FD
:10048800DE260A128A11BC3083160313920032301A
:100498008312031395000030D5000030D4000F30CC
:1004A800D300A030D2000A168A15DE260A128A1155
:1004B800B23083160313920032308312031395006F
:1004C8000030D5000030D4000F30D300A030D20067
:1004D8000A168A15DE260A128A119E30831603131D
:1004E800920032308312031395000030D50000309B
:1004F800D4000F30D300A030D2000A168A15DE26A9
:100508000A128A119E308316031392003230831226
:10051800031395000030D5000030D4000F30D3000D
:10052800A030D2000A168A15DE260A128A11B230C5
:1005380083160313920032308312031395000030A0
:10054800D5000030D4000F30D300A030D2000A16F6
:100558008A15DE260A128A11BC308316031392000C
:1005680032308312031395000030D5000030D400D8
:100578000F30D300A030D2000A168A15DE260A12E0
:100588008A11D33083160313920032308312031377
:1005980095000030D5000030D4000F30D300A030D3
:1005A800D2000A168A15DE260A128A11EE30831640
:1005B8000313920032308312031395000030D500E4
:1005C8000030D4000F30D300A030D2000A168A15AC
:1005D800DE260A128A11EE30831603139200323097
:1005E8008312031395000030D5000030D4000F307B
:1005F800D300A030D2000A168A15DE260A128A1104
:10060800D3308316031392003230831203139500FC
:100618000030D5000030D4000F30D300A030D20015
:100628000A168A15DE260A128A11BC3083160313AD
:10063800920032308312031395000030D500003049
:10064800D4000F30D300A030D2000A168A15DE2657
:100658000A128A11D33083160313920032308312A0
:10066800031395000030D5000030D4000F30D300BC
:10067800A030D2000A168A15DE260A128A11EE3038
:10068800831603139200323083120313950000304F
:10069800D5000030D4000730D300D030D2000A167D
:1006A8008A15DE260A128A11EE3083160313920089
:1006B80032308312031395000030D5000030D40087
:1006C8001F30D3004030D2000A168A15DE260A12DF
:1006D8008A1183120313970176309200B43083167F
:1006E800031392008312031395018C1083160313CE
:1006F8008C14C530831203139000E2308316031361
:100708008F00831203138C13831603138C170A1696
:100718008A156C250A128A118B1708008312031395
:100728003208013A031D992B9A2BD42B3B08583ACF
:1007380003199F2BA02BA72B3B084F3A031DA52B72
:10074800A62BB72BA72BCF08031DAB2BAC2BB22B9B
:100758000310003003180130CF00D42BCF0103144D
:10076800CF0DD42BD42B0A128A1501200A128A1114
:100778000A168A1115230A128A1183120313CF0845
:10078800031DC72BC82BCC2BCF010314CF0DD42BA3
:100798000310003003180130CF00D42BD42BD42BF6
:1007A8003308013A031DD92BDA2B142C3C08583A8C
:1007B8000319DF2BE02BE72B3C084F3A031DE52BF1
:1007C800E62BF72BE72BCF08031DEB2BEC2BF22B9B
:1007D8000310003003180130CF00142CCF0103148C
:1007E800CF0D142C142C0A128A1501200A128A1112
:1007F8000A168A1115230A128A1183120313CF08C5
:10080800031D072C082C0C2CCF010314CF0D142C1E
:100818000310003003180130CF00142C142C142CB2
:100828003408013A031D192C1A2C542C3D08583A47
:1008380003191F2C202C272C3D084F3A031D252C6B
:10084800262C372C272CCF08031D2B2C2C2C322C94
:100858000310003003180130CF00542CCF010314CB
:10086800CF0D542C542C0A128A1501200A128A1111
:100878000A168A1115230A128A1183120313CF0844
:10088800031D472C482C4C2CCF010314CF0D542C9E
:100898000310003003180130CF00542C542C542C72
:1008A8003508013A031D592C5A2C942C3E08583A05
:1008B80003195F2C602C672C3E084F3A031D652CEA
:1008C800662C772C672CCF08031D6B2C6C2C722C94
:1008D8000310003003180130CF00942CCF0103140B
:1008E800CF0D942C942C0A128A1501200A128A1111
:1008F8000A168A1115230A128A1183120313CF08C4
:10090800031D872C882C8C2CCF010314CF0D942C1D
:100918000310003003180130CF00942C942C942C31
:100928003608013A031D992C9A2CD42C3F08583AC2
:1009380003199F2CA02CA72C3F084F3A031DA52C68
:10094800A62CB72CA72CCF08031DAB2CAC2CB22C93
:100958000310003003180130CF00D42CCF0103144A
:10096800CF0DD42CD42C0A128A1501200A128A1110
:100978000A168A1115230A128A1183120313CF0843
:10098800031DC72CC82CCC2CCF010314CF0DD42C9D
:100998000310003003180130CF00D42CD42CD42CF1
:1009A8003708013A031DD92CDA2C142D4008583A7F
:1009B8000319DF2CE02CE72C40084F3A031DE52CE7
:1009C800E62CF72CE72CCF08031DEB2CEC2CF22C93
:1009D8000310003003180130CF00142DCF01031489
:1009E800CF0D142D142D0A128A1501200A128A110E
:1009F8000A168A1115230A128A1183120313CF08C3
:100A0800031D072D082D0C2DCF010314CF0D142D18
:100A18000310003003180130CF00142D142D142DAD
:100A28003808013A031D192D1A2D542D4108583A3A
:100A380003191F2D202D272D41084F3A031D252D61
:100A4800262D372D272DCF08031D2B2D2C2D322D8C
:100A58000310003003180130CF00542DCF010314C8
:100A6800CF0D542D542D0A128A1501200A128A110D
:100A78000A168A1115230A128A1183120313CF0842
:100A8800031D472D482D4C2DCF010314CF0D542D98
:100A98000310003003180130CF00542D542D542D6D
:100AA8003908013A031D592D5A2D942D4208583AF8
:100AB80003195F2D602D672D42084F3A031D652DE0
:100AC800662D772D672DCF08031D6B2D6C2D722D8C
:100AD8000310003003180130CF00942DCF01031408
:100AE800CF0D942D942D0A128A1501200A128A110D
:100AF8000A168A1115230A128A1183120313CF08C2
:100B0800031D872D882D8C2DCF010314CF0D942D17
:100B18000310003003180130CF00942D942D942D2C
:100B28003A08013A031D992D9A2DD42D4308583AB5
:100B380003199F2DA02DA72D43084F3A031DA52D5E
:100B4800A62DB72DA72DCF08031DAB2DAC2DB22D8B
:100B58000310003003180130CF00D42DCF01031447
:100B6800CF0DD42DD42D0A128A1501200A128A110C
:100B78000A168A1115230A128A1183120313CF0841
:100B8800031DC72DC82DCC2DCF010314CF0DD42D97
:100B98000310003003180130CF00D42DD42DD42DEC
:100BA80008000A128A11A7270A128A1101300A16A8
:100BB8008A15C7250A128A1102300A168A15C7250E
:100BC8000A128A1106300A168A15C7250A128A11CE
:100BD8000C300A168A15C7250A128A1138300A16E7
:100BE8008A15C7250A128A110A168A1584250A1237
:100BF8008A1100300A168A156F260A128A112130C6
:100C08000A168A15B4260A128A1114300A168A1589
:100C18006F260A128A1101300A168A15B4260A129A
:100C28008A11003083120313D5000030D400273016
:100C3800D3001030D2000A168A15DE260A128A114D
:100C4800003083120313E5000030E6006608803A9E
:100C5800FF0080307F02031D332E0F306502031C16
:100C6800362E372E392E542E542E0A168A159A25CA
:100C78000A128A11013083120313E5070318E60AE2
:100C88000030E6076608803AFF0080307F02031DC7
:100C98004F2E0F306502031C522E532E392E542E20
:100CA800003083120313D5000030D4007530D30010
:100CB8003030D2000A168A15DE260A128A110A1660
:100CC8008A1584250A128A1100300A168A156F2699
:100CD8000A128A11B4300A168A15B4260A128A1121
:100CE80014300A168A156F260A128A1173300A16EA
:100CF8008A15B4260A128A11003083120313D5000C
:100D08000030D400EA30D3006030D2000A168A15C9
:100D1800DE260A128A110A168A1584250A128A11F1
:100D280000300A168A156F260A128A11A4300A168C
:100D38008A15B4260A128A1114300A168A156F26E3
:100D48000A128A11CE300A168A15B4260A128A1196
:100D5800003083120313D5000030D4007530D3005F
:100D68003030D2000A168A15DE260A128A1100309F
:100D780083120313B500B400B300E4006408B200A2
:100D88000030B900B800B700E4006408B6000310EA
:100D9800003003180130BA000A168A113F220A12DD
:100DA8008A11112F83120313CF08031DDC2EDD2EA9
:100DB800EF2E0A168A1584250A128A1100300A169F
:100DC8008A156F260A128A1184300A168A15B426E3
:100DD8000A128A11012F0A168A1584250A128A1105
:100DE80000300A168A156F260A128A1194300A16DC
:100DF8008A15B4260A128A11012F0A168A15F925AE
:100E08000A128A110A168A119F260A128A11831257
:100E18000313E4006408CE00112F831203134E0855
:100E2800203A0319182F192FD62E1A2F4E08583A80
:100E3800031D1F2F202F432F0A168A1123240A125D
:100E48008A110A168A1584250A128A1100300A1690
:100E58008A156F260A128A1140300A168A15B42696
:100E68000A128A1114300A168A156F260A128A1174
:100E780051300A168A15B4260A128A11432F831292
:100E880003134E084F3A031D4A2F4B2F992F0A166A
:100E98008A1123240A128A110A168A1584250A122D
:100EA8008A1100300A168A156F260A128A114030F4
:100EB8000A168A15B4260A128A1114300A168A15D7
:100EC8006F260A128A1162300A168A15B4260A1287
:100ED8008A11992F992F0A128A11EE200A128A1163
:100EE8000A168A1510270A128A110A168A158425E5
:100EF8000A128A1100300A168A156F260A128A11F8
:100F080040300A168A15B4260A128A1114300A16B5
:100F18008A156F260A128A11C3300A168A15B42652
:100F28000A128A11742F742F992F831203134E08F3
:100F3800643A0319A02FA12F6F2FA32FA32FA32F3C
:100F48000A128A11122810308316031385008601AD
:100F58008701FF3088008901831203138601890104
:100F68000A168A1590260A128A111030831603175A
:100F7800850086018901FF308800031000300318BE
:100F8800013083120313D10003100030031801301D
:100F9800CF000310003003180130D0001030831642
:100FA800031390008B178D308312031788000830C5
:100FB80089000A168A1185210A128A110A168A11CD
:100FC8009F260A128A1183120313E3006308CE00D6
:100FD8000B170800F52F0A128A1192230A128A1198
:100FE800F52F831203134F08013A0319FC2FFD2F25
:060FF800EF2FFE2F0800A0
:1010020083120313CF08031D072808286428320817
:10101200013A031D0D280E2812285830D20052081A
:10102200BB003308013A031D172818281C28583022
:10103200D2005208BC003408013A031D212822289C
:1010420026285830D2005208BD003508013A031D47
:101052002B282C2830285830D2005208BE003608DF
:10106200013A031D352836283A285830D200520852
:10107200BF003708013A031D3F2840284428583052
:10108200D2005208C0003808013A031D49284A28F4
:101092004E285830D2005208C1003908013A031DC7
:1010A2005328542858285830D2005208C2003A080F
:1010B200013A031D5D285E28C7285830D200520825
:1010C200C300C728C7284F08013A031D69286A28A8
:1010D200C7283208013A031D6F28702874284F3040
:1010E200D2005208BB003308013A031D79287A283E
:1010F2007E284F30D2005208BC003408013A031D4A
:101102008328842888284F30D2005208BD00350831
:10111200013A031D8D288E2892284F30D2005208A2
:10112200BE003608013A031D972898289C284F30A4
:10113200D2005208BF003708013A031DA128A22895
:10114200A6284F30D2005208C0003808013A031DC9
:10115200AB28AC28B0284F30D2005208C100390861
:10116200013A031DB528B628BA284F30D2005208DA
:10117200C2003A08013A031DBF28C028C7284F30D1
:10118200D2005208C300C728C728C728080055083C
:101192003B3E84000008203A031DD028D128EA28CB
:1011A20055083E3E84000008203A031DD928DA285B
:1011B200EA285508413E840000084F3A031DE22800
:1011C200E328EA285508443E840080010314800D78
:1011D200D12F55083B3E840000084F3A031DF228E8
:1011E200F3280D2955083E3E840000084F3A031D9E
:1011F200FB28FC280D295508413E84000008583A76
:10120200031D042905290D294A30D4005508443EFE
:10121200840054088000D12F55083B3E840000080A
:101222004F3A031D15291629302955083E3E8400E0
:1012320000084F3A031D1E291F2930295508413E37
:1012420084000008203A031D272928293029483024
:10125200D4005508443E840054088000D12F55081C
:101262003B3E840000084F3A031D3829392953298F
:1012720055083E3E84000008203A031D41294229B8
:1012820053295508413E84000008583A031D4A2953
:101292004B2953294230D4005508443E8400540857
:1012A2008000D12F55083B3E840000084F3A031DB1
:1012B2005B295C29762955083E3E84000008203AC5
:1012C200031D6429652976295508413E84000008DA
:1012D200203A031D6D296E2976294030D400550825
:1012E200443E840054088000D12F55083B3E8400C0
:1012F2000008203A031D7E297F29992955083E3E80
:10130200840000084F3A031D872988299929550826
:10131200413E84000008583A031D902991299929D9
:101322000A30D4005508443E840054088000D12F6E
:1013320055083B3E84000008203A031DA129A2293A
:10134200BC2955083E3E840000084F3A031DAA29D5
:10135200AB29BC295508413E84000008203A031DF0
:10136200B329B429BC290830D4005508443E84006E
:1013720054088000D12F55083B3E84000008203AD3
:10138200031DC429C529DF2955083E3E84000008F3
:10139200203A031DCD29CE29DF295508413E84007C
:1013A2000008583A031DD629D729DF290230D40074
:1013B2005508443E840054088000D12F55083B3E16
:1013C200840000084F3A031DE729E829022A55083C
:1013D2003E3E84000008583A031DF029F129022AF2
:1013E2005508413E840000084F3A031DF929FA29A5
:1013F200022A5130D4005508443E8400540880002B
:10140200D12F55083B3E840000084F3A031D0A2A9B
:101412000B2A252A55083E3E84000008583A031D2F
:10142200132A142A252A5508413E84000008203A2E
:10143200031D1C2A1D2A252A5030D4005508443E7B
:10144200840054088000D12F55083B3E84000008D8
:101452004F3A031D2D2A2E2A482A55083E3E840063
:101462000008203A031D362A372A482A5508413EE9
:10147200840000084F3A031D3F2A402A482A41307F
:10148200D4005508443E840054088000D12F5508EA
:101492003B3E840000084F3A031D502A512A6B2A12
:1014A20055083E3E84000008203A031D592A5A2A54
:1014B2006B2A5508413E84000008203A031D622A27
:1014C200632A6B2A4030D4005508443E84005408F5
:1014D2008000D12F55083B3E84000008203A031DAE
:1014E200732A742A8E2A55083E3E84000008583A10
:1014F200031D7C2A7D2A8E2A5508413E840000085D
:101502004F3A031D852A862A8E2A1130D4005508A7
:10151200443E840054088000D12F55083B3E84008D
:101522000008203A031D962A972AB12A55083E3E02
:1015320084000008583A031D9F2AA02AB12A5508A0
:10154200413E84000008203A031DA82AA92AB12A94
:101552001030D4005508443E840054088000D12F36
:1015620055083B3E84000008203A031DB92ABA2AD6
:10157200D32A55083E3E84000008203A031DC22AA1
:10158200C32AD32A5508413E840000084F3A031D5E
:10159200CB2ACC2AD32A5508443E84008001031466
:1015A200800DD12F55083B3E840000084F3A031DA1
:1015B200DB2ADC2AF62A55083E3E84000008583A07
:1015C200031DE42AE52AF62A5508413E8400000854
:1015D200583A031DED2AEE2AF62A5230D400550855
:1015E200443E840054088000D12F55083B3E8400BD
:1015F20000084F3A031DFE2AFF2A192B55083E3ECA
:1016020084000008583A031D072B082B192B550894
:10161200413E84000008203A031D102B112B192B88
:101622005030D4005508443E840054088000D12F25
:1016320055083B3E840000084F3A031D212B222B04
:101642003C2B55083E3E84000008203A031D2A2BFD
:101652002B2B3C2B5508413E84000008583A031DB1
:10166200332B342B3C2B4230D4005508443E8400AB
:1016720054088000D12F55083B3E840000084F3AA1
:10168200031D442B452B5F2B55083E3E840000086A
:10169200203A031D4D2B4E2B5F2B5508413E8400F3
:1016A2000008203A031D562B572B5F2B4030D400E5
:1016B2005508443E840054088000D12F55083B3E13
:1016C20084000008203A031D672B682B822B5508E3
:1016D2003E3E84000008583A031D702B712B822B6A
:1016E2005508413E84000008583A031D792B7A2B95
:1016F200822B1230D4005508443E840054088000E6
:10170200D12F55083B3E84000008203A031D8A2B46
:101712008B2BA52B55083E3E84000008583A031D2A
:10172200932B942BA52B5508413E84000008203AA8
:10173200031D9C2B9D2BA52B1030D4005508443E35
:10174200840054088000D12F55083B3E84000008D5
:10175200203A031DAD2BAE2BC82B55083E3E84000C
:101762000008203A031DB62BB72BC82B5508413E63
:1017720084000008583A031DBF2BC02BC82B02302F
:10178200D4005508443E840054088000D12F5508E7
:101792003B3E84000008583A031DD02BD12BEB2B83
:1017A20055083E3E840000084F3A031DD92BDA2B20
:1017B200EB2B5508413E840000084F3A031DE22BF3
:1017C200E32BEB2B8930D4005508443E84005408A7
:1017D2008000D12F55083B3E84000008583A031D73
:1017E200F32BF42B0E2C55083E3E840000084F3A92
:1017F200031DFC2BFD2B0E2C5508413E84000008D6
:10180200203A031D052C062C0E2C8830D4005508D6
:10181200443E840054088000D12F55083B3E84008A
:101822000008583A031D162C172C312C55083E3E41
:1018320084000008203A031D1F2C202C312C55084F
:10184200413E840000084F3A031D282C292C312CDC
:101852008130D4005508443E840054088000D12FC2
:1018620055083B3E84000008583A031D392C3A2C97
:10187200542C55083E3E84000008203A031D422C99
:10188200432C542C5508413E84000008203A031D85
:101892004B2C4C2C542C8030D4005508443E8400F0
:1018A20054088000D12F55083B3E84000008203A9E
:1018B200031D5C2C5D2C772C55083E3E84000008ED
:1018C2004F3A031D652C662C772C5508413E840047
:1018D20000084F3A031D6E2C6F2C772C0930D40070
:1018E2005508443E840054088000D12F55083B3EE1
:1018F20084000008203A031D7F2C802C9A2C550866
:101902003E3E840000084F3A031D882C892C9A2CF5
:101912005508413E84000008203A031D912C922C68
:101922009A2C0830D4005508443E840054088000A4
:10193200D12F55083B3E84000008203A031DA22CFB
:10194200A32CBC2C55083E3E84000008203A031DFF
:10195200AB2CAC2CBC2C5508413E840000084F3AFD
:10196200031DB42CB52CBC2C5508443E84008001C8
:101972000314800DD12F55083B3E84000008583ACD
:10198200031DC42CC52CDF2C55083E3E84000008E4
:101992004F3A031DCD2CCE2CDF2C5508413E84003E
:1019A2000008583A031DD62CD72CDF2C8A30D400DD
:1019B2005508443E840054088000D12F55083B3E10
:1019C20084000008583A031DE72CE82C022D550824
:1019D2003E3E840000084F3A031DF02CF12C022DEC
:1019E2005508413E84000008203A031DF92CFA2CC8
:1019F200022D8830D4005508443E840054088000EB
:101A0200D12F55083B3E84000008583A031D0A2D89
:101A12000B2D252D55083E3E84000008203A031D5B
:101A2200132D142D252D5508413E84000008583AE7
:101A3200031D1C2D1D2D252D8230D4005508443E3A
:101A4200840054088000D12F55083B3E84000008D2
:101A5200583A031D2D2D2E2D482D55083E3E84004B
:101A62000008203A031D362D372D482D5508413EDA
:101A720084000008203A031D3F2D402D482D803060
:101A8200D4005508443E840054088000D12F5508E4
:101A92003B3E84000008203A031D502D512D6B2D32
:101AA20055083E3E840000084F3A031D592D5A2D19
:101AB2006B2D5508413E84000008583A031D622DE3
:101AC200632D6B2D0A30D4005508443E840054081F
:101AD2008000D12F55083B3E84000008203A031DA8
:101AE200732D742D8E2D55083E3E840000084F3A0A
:101AF200031D7C2D7D2D8E2D5508413E840000084E
:101B0200203A031D852D862D8E2D0830D4005508D0
:101B1200443E840054088000D12F55083B3E840087
:101B22000008203A031D962D972DB12D55083E3EF3
:101B320084000008203A031D9F2DA02DB12D5508C9
:101B4200413E84000008583A031DA82DA92DB12D4D
:101B52000230D4005508443E840054088000D12F3E
:101B620055083B3E84000008583A031DB92DBA2D92
:101B7200D42D55083E3E84000008583A031DC22D5C
:101B8200C32DD42D5508413E840000084F3A031D51
:101B9200CB2DCC2DD42D9130D4005508443E840059
:101BA20054088000D12F55083B3E84000008583A63
:101BB200031DDC2DDD2DF72D55083E3E8400000867
:101BC200583A031DE52DE62DF72D5508413E8400B8
:101BD2000008203A031DEE2DEF2DF72D9030D40092
:101BE2005508443E840054088000D12F55083B3EDE
:101BF20084000008583A031DFF2D002E1A2E5508A6
:101C02003E3E84000008203A031D082E092E1A2E9B
:101C12005508413E840000084F3A031D112E122E32
:101C22001A2E8130D4005508443E840054088000A6
:101C3200D12F55083B3E84000008583A031D222E3E
:101C4200232E3D2E55083E3E84000008203A031DF7
:101C52002B2E2C2E3D2E5508413E84000008203AA2
:101C6200031D342E352E3D2E8030D4005508443EBF
:101C7200840054088000D12F55083B3E84000008A0
:101C8200203A031D452E462E602E55083E3E840006
:101C92000008583A031D4E2E4F2E602E5508413E25
:101CA200840000084F3A031D572E582E602E113023
:101CB200D4005508443E840054088000D12F5508B2
:101CC2003B3E84000008203A031D682E692E832EB5
:101CD20055083E3E84000008583A031D712E722EAC
:101CE200832E5508413E84000008203A031D7A2EB7
:101CF2007B2E832E1030D4005508443E84005408B5
:101D02008000D12F55083B3E84000008203A031D75
:101D12008B2E8C2EA52E55083E3E84000008203ABC
:101D2200031D942E952EA52E5508413E84000008D1
:101D32004F3A031D9D2E9E2EA52E5508443E84002B
:101D420080010314800DD12F55083B3E840000080A
:101D5200583A031DAD2EAE2EC82E55083E3E8400C5
:101D62000008583A031DB62EB72EC82E5508413E1C
:101D720084000008583A031DBF2EC02EC82E923090
:101D8200D4005508443E840054088000D12F5508E1
:101D92003B3E84000008583A031DD02ED12EEB2E74
:101DA20055083E3E84000008583A031DD92EDA2E0B
:101DB200EB2E5508413E84000008203A031DE22E16
:101DC200E32EEB2E9030D4005508443E8400540894
:101DD2008000D12F55083B3E84000008583A031D6D
:101DE200F32EF42E0E2F55083E3E84000008203AB2
:101DF200031DFC2EFD2E0E2F5508413E84000008C7
:101E0200583A031D052F062F0E2F8230D400550895
:101E1200443E840054088000D12F55083B3E840084
:101E22000008583A031D162F172F312F55083E3E32
:101E320084000008203A031D1F2F202F312F550840
:101E4200413E84000008203A031D282F292F312FFC
:101E52008030D4005508443E840054088000D12FBD
:101E620055083B3E84000008203A031D392F3A2FC3
:101E7200542F55083E3E84000008583A031D422F55
:101E8200432F542F5508413E84000008583A031D41
:101E92004B2F4C2F542F1230D4005508443E84004F
:101EA20054088000D12F55083B3E84000008203A98
:101EB200031D5C2F5D2F772F55083E3E84000008DE
:101EC200583A031D652F662F772F5508413E84002F
:101ED2000008203A031D6E2F6F2F772F1030D40089
:101EE2005508443E840054088000D12F55083B3EDB
:101EF20084000008203A031D7F2F802FD12F550820
:101F02003E3E84000008203A031D882F892FD12FDE
:101F12005508413E84000008583A031D912F922F24
:101F2200D12F0230D4005508443E8400540880006A
:101F3200D12FD12FD12FD12FD12FD12FD12FD12F9F
:101F4200D12FD12FD12FD12FD12FD12FD12FD12F8F
:101F5200D12FD12FD12FD12FD12FD12FD12FD12F7F
:101F6200D12FD12FD12FD12FD12FD12FD12FD12F6F
:101F7200D12FD12FD12FD12FD12FD12FD12FD12F5F
:101F8200D12FD12FD12FD12FD12FD12FD12FD12F4F
:101F9200D12FD12FD12FD12FD12FD12FD12FD12F3F
:101FA20044080A168A157A270A128A15831203131D
:101FB20045080A168A1179200A128A158312031318
:101FC20046080A168A11FF200A128A150130831266
:101FD2000313D5070318D60A0030D6075608803AED
:101FE200FF0080307F02031DF82F03305502031CCF
:0E1FF200FB2FFE2F0A168A11322BFF2F08003C
:102006000130F000700883120313D0070930500224
:10201600031C0E280F281628031000300318013061
:10202600D00016281628D008031D1A281B281F289A
:10203600083083120317890003135008013A031D61
:10204600252826282A280930831203178900031316
:102056005008023A031D3028312835280A308312E9
:102066000317890003135008033A031D3B283C2835
:1020760040280B3083120317890003135008043AD3
:10208600031D462847284B280C3083120317890066
:1020960003135008053A031D5128522856280D30BF
:1020A60083120317890003135008063A031D5C28A0
:1020B6005D2861280E308312031789000313500828
:1020C600073A031D672868286C280F308312031708
:1020D600890003135008083A031D722873287828CC
:1020E6000630831203178900782808008312031329
:1020F600D300531C7F2880288228851683288512C2
:10210600071407105308D20001300310D20CFF3E0B
:10211600031D8828521C90289128932885169428F8
:102126008512071407105308D20002300310D20C90
:10213600FF3E031D9928521CA128A228A428851613
:10214600A5288512071407105308D2000330031080
:10215600D20CFF3E031DAA28521CB228B328B5286C
:102166008516B6288512071407105308D2000430C6
:102176000310D20CFF3E031DBB28521CC328C428E3
:10218600C6288516C7288512071407105308D200DB
:1021960005300310D20CFF3E031DCC28521CD42858
:1021A600D528D7288516D82885120714071053086E
:1021B600D20006300310D20CFF3E031DDD28521C50
:1021C600E528E628E8288516E92885120714071069
:1021D6005308D20007300310D20CFF3E031DEE2831
:1021E600521CF628F728F9288516FA2885120714AE
:1021F600071009150911080083120313D300531C95
:1022060005290629082985140929851085158511AA
:102216005308D20001300310D20CFF3E031D0E29D5
:10222600521C16291729192985141A29851085156E
:1022360085115308D20002300310D20CFF3E031D55
:102246001F29521C272928292A2985142B2985105C
:10225600851585115308D20003300310D20CFF3EBA
:10226600031D3029521C382939293B2985143C295C
:102276008510851585115308D20004300310D20C41
:10228600FF3E031D4129521C49294A294C29851420
:102296004D298510851585115308D2000530031088
:1022A600D20CFF3E031D5229521C5A295B295D2977
:1022B60085145E298510851585115308D2000630D0
:1022C6000310D20CFF3E031D6329521C6B296C2997
:1022D6006E2985146F298510851585115308D2003E
:1022E60007300310D20CFF3E031D7429521C7C29B3
:1022F6007D297F2985148029851085158511051569
:10230600051108000310003003180130831203136F
:10231600D00009305002031C912992299429B4292E
:10232600B4295008D6005607203E84000030831397
:102336008000840A003080005008D6005607A03E70
:10234600840000308000840A003080000130D6000E
:102356005608D00709305002031CB229B329942924
:10236600B4290030DB000030DC005C08803AFF0056
:1023760080307F02031DC12903305B02031CC42980
:10238600C529C729222A222A003083120313DD0019
:102396000030DE005E08803AFF0080307F02031DB9
:1023A600D62903305D02031CD929DA29DC290C2A37
:1023B6000C2A203083120313D6000330D7005708A7
:1023C600D2005B080A168A152F260A168A1183126E
:1023D6000313D8003B305807D9005D085907DA00C7
:1023E6005A0884005608831380000130DD0703185D
:1023F600DE0A0030DE075E08803AFF0080307F028A
:10240600031D072A03305D02031C0A2A0B2ADC2956
:102416000C2A013083120313DB070318DC0A003091
:10242600DC075C08803AFF0080307F02031D1D2A0E
:1024360003305B02031C202A212AC729222A763070
:10244600831203139200B43083160313920083128F
:1024560003138C10831603138C14C53083120313D5
:102466009000E230831603138F00831203138C133C
:10247600831603138C1708008B1383120313121190
:1024860010100C30970007309200EE3083160313BD
:10249600920032308312031395000030D5000030CD
:1024A600D4000730D300D030D2000A168A15DE26B3
:1024B6000A168A11D3308316031392003230831220
:1024C600031395000030D5000030D4000730D30048
:1024D600D030D2000A168A15DE260A168A11BD30B9
:1024E60083160313920064308312031395000030A1
:1024F600D5000030D4000730D300D030D2000A1601
:102506008A15DE260A168A11B23083160313920044
:1025160064308312031395000030D5000030D400D8
:102526000730D300D030D2000A168A15DE260A16E6
:102536008A119E30831603139200323083120313DE
:1025460095000030D5000030D4000730D300D030DD
:10255600D2000A168A15DE260A168A118D308316CF
:102566000313920032308312031395000030D50016
:102576000030D4000730D300D030D2000A168A15B6
:10258600DE260A168A117D30831603139200323036
:102596008312031395000030D5000030D4000730B5
:1025A600D300D030D2000A168A15DE260A168A1102
:1025B600763083160313920032308312031395008C
:1025C6000030D5000030D4000F30D300A030D20048
:1025D6000A168A15DE260A168A1183120313970134
:1025E60076309200B43083160313920083120313DD
:1025F60095018C10831603138C14C53083120313B4
:102606009000E230831603138F00831203138C139A
:10261600831603138C170A168A156C250A168A1157
:102626008B170800831203138716071787170510E1
:10263600851305130030D5000030D6005608803AC1
:10264600FF0080307F02031D2A2B03305502031C36
:102656002D2B2E2B322B0A128A15FF2F2E2B83128F
:10266600031344080A168A157A270A168A11831252
:10267600031345080A168A1179200A168A1183124D
:10268600031346080A168A11FF200A168A118312B6
:10269600031355083B3E8400831300084F3A031D7D
:1026A600552B562B722B55083E3E840000084F3A98
:1026B600031D5E2B5F2B722B5508413E84000008DC
:1026C6004F3A031D672B682B722B4930D4005508EF
:1026D600443E8400540880000A128A15D12F5508FA
:1026E6003B3E840000084F3A031D7A2B7B2B952B2B
:1026F60055083E3E840000084F3A031D832B842B69
:10270600952B5508413E84000008203A031D8C2B6A
:102716008D2B952B4830D4005508443E8400540830
:1027260080006F2B55083B3E840000084F3A031D7E
:102736009D2B9E2BB82B55083E3E84000008203A60
:10274600031DA62BA72BB82B5508413E8400000875
:102756004F3A031DAF2BB02BB82B4130D400550890
:10276600443E8400540880006F2B55083B3E84008D
:1027760000084F3A031DC02BC12BDB2B55083E3EEC
:1027860084000008203A031DC92BCA2BDB2B5508F1
:10279600413E84000008203A031DD22BD32BDB2BAD
:1027A6004030D4005508443E8400540880006F2B06
:1027B60055083B3E84000008203A031DE32BE42B1A
:1027C600FE2B55083E3E840000084F3A031DEC2BB5
:1027D600ED2BFE2B5508413E840000084F3A031DA1
:1027E600F52BF62BFE2B0930D4005508443E840009
:1027F600540880006F2B55083B3E84000008203AA1
:10280600031D062C092C0A128A15C82855083E3EB7
:10281600840000084F3A031D112C122C062C550873
:10282600413E84000008203A031D1A2C1B2C062C5E
:102836000830D4005508443E8400540880006F2BAD
:102846008B1383120313121110100C3097000730EC
:1028560092007630831603139200323083120313EC
:1028660095000030D5000030D4000F30D300A030E2
:10287600D2000A168A15DE260A168A117D308316BC
:102886000313920032308312031395000030D500F3
:102896000030D4000F30D300A030D2000A168A15BB
:1028A600DE260A168A119E308316031392003230F2
:1028B6008312031395000030D5000030D4000F308A
:1028C600D300A030D2000A168A15DE260A168A110F
:1028D6007630831603139200643083120313950037
:1028E6000030D5000030D4001F30D3004030D20075
:1028F6000A168A15DE260A168A117D3083160313F8
:10290600920064308312031395000030D500003026
:10291600D4001F30D3004030D2000A168A15DE26B6
:102926000A168A11BD3083160313920032308312C1
:10293600031395000030D5000030D4000F30D300CB
:10294600A030D2000A168A15DE260A168A118316C8
:102956000313920132308312031395000030D50021
:102966000030D4000730D300D030D2000A168A15C2
:10297600DE260A168A117630831603139200323049
:102986008312031395000030D5000030D4000F30B9
:10299600D300A030D2000A168A15DE260A168A113E
:1029A600EE30831603139200323083120313950020
:1029B6000030D5000030D4000F30D300A030D20054
:1029C6000A168A15DE260A168A119E308316031306
:1029D600920032308312031395000030D500003088
:1029E600D4000F30D300A030D2000A168A15DE2696
:1029F6000A168A118D308316031392003230831221
:102A0600031395000030D5000030D4001F30D300EA
:102A16004030D2000A168A15DE260A168A1176304A
:102A2600831603139200323083120313950000308D
:102A3600D5000030D4001F30D3004030D2000A1633
:102A46008A15DE260A168A11831203139701763039
:102A56009200B43083160313920083120313950178
:102A66008C10831603138C14C53083120313900045
:102A7600E230831603138F00831203138C1383161D
:102A860003138C170A168A156C250A168A118B17DA
:102A96000800831203130F08F100F2010830FF004B
:102AA6000310F10DF20DFF0B532D0E087107FC00FC
:102AB60072080318720AFD007D08F2007C08F10016
:102AC6000430FF000310F10DF20DFF0B652D7108A8
:102AD600FC007208FD005008F1007107A03E84005A
:102AE6007C0883138000840A7D0880005008F1006A
:102AF6007107203E84000008F200840A0008F300F3
:102B060004300310F30CF20CFF3E031D842D7208F3
:102B1600C7007308C8005008F1007107203E840002
:102B26000008F200840A0008F30002300310F30CD8
:102B3600F20CFF3E031D992D7208CB007308CC00E2
:102B46004C08CA01CA074B08C901C9075008F10059
:102B56007107203E84000008F200840A0008F30092
:102B66004909F4004A09F500F40A0319F50A72083E
:102B76007407F60073080318730A7507F7007708D9
:102B86007D02031DC82D76087C020318CB2DCC2DA3
:102B96004B2EF42DF42DB2010314B20D942EB30175
:102BA6000314B30D942EB4010314B40D942EB50181
:102BB6000314B50D942EB6010314B60D942EB70169
:102BC6000314B70D942EB8010314B80D942EB90151
:102BD6000314B90D942EBA010314BA0D942E942E33
:102BE600942E5008003A0319CE2D013A0319D22D1E
:102BF600033A0319D62D013A0319DA2D073A0319B8
:102C0600DE2D013A0319E22D033A0319E62D013AA6
:102C16000319EA2D0F3A0319EE2D942E942E4B2EFE
:102C26000310003003180130B200682E0310003084
:102C360003180130B300682E03100030031801306A
:102C4600B400682E0310003003180130B500682E5A
:102C56000310003003180130B600682E0310003050
:102C660003180130B700682E031000300318013036
:102C7600B800682E0310003003180130B900682E22
:102C86000310003003180130BA00682E682E682E33
:102C96005008003A0319132E013A0319192E033A64
:102CA60003191F2E013A0319252E073A03192B2E55
:102CB600013A0319312E033A0319372E013A031943
:102CC6003D2E0F3A0319432E682E4709F100480995
:102CD600F200F10A0319F20A7D08F4007C08F300F9
:102CE60004300310F40CF30CFF3E031D742E710820
:102CF6007307F50072080318720A7407F600500885
:102D0600F7007707203E8400750883138007840F39
:102D160000080318000AFF0076087F078000840376
:102D2600942E0A168A1103200A168A110A168A1583
:102D360063250A168A110800003083120313DA008D
:102D46000030DB000030E1000030E2006208803A2B
:102D5600FF0080307F02031DB22E03306102031C88
:102D6600B52EB62EB82E6E2F6E2F03308312031398
:102D7600D6005608D20061080A168A152F260A16AA
:102D86008A11013E3B3E840083130008831203131D
:102D9600D7000330D8005808D20061080A168A15F1
:102DA6002F260A168A113B3E8400831300088312DD
:102DB60003135706031DE02EE12E182F0330D6000D
:102DC6005608D20061080A168A152F260A168A1195
:102DD600023E3B3E84008313000883120313D70090
:102DE6000330D8005808D20061080A168A152F2623
:102DF6000A168A113B3E84008313000883120313CC
:102E06005706031D072F082F182F0330D600560824
:102E1600D20061080A168A152F260A168A113B3E29
:102E2600840083130008FF2FFF2F8312031361080A
:102E36003E3E84000008D60061083B3E8400000840
:102E46005606031D272F282F3C2F6108413E84007C
:102E56000008D60061083B3E840000085606031DA4
:102E6600352F362F3C2F61083B3E84000008FF2F8C
:102E7600FF2F3F083B06031D412F422F4B2F4308D0
:102E86003B06031D472F482F4B2F3B08FF2FFF2FD5
:102E96003D083F06031D502F512F5A2F3D0841066E
:102EA600031D562F572F5A2F3D08FF2FFF2F013096
:102EB600E1070318E20A0030E2076208803AFF00E1
:102EC60080307F02031D692F03306102031C6C2FC3
:102ED6006D2FB82E6E2F003083120313DD000030E5
:102EE600DE005E08803AFF0080307F02031D7D2FE2
:102EF60003305D02031C802F812F832FE82FE82FDC
:102F0600003083120313DF000030E0006008803ACF
:102F1600FF0080307F02031D922F03305F02031CE7
:102F2600952F962F982FD22FD22F0330831203136B
:102F3600D6005608D2005D080A168A152F260A16EC
:102F46008A1183120313D7003B305707D8005F0856
:102F56005807D9005908840083130008203A031D36
:102F6600B52FB62FBE2F0130DA070318DB0A003063
:102F7600DB07BE2FBE2F0130DF070318E00A003043
:102F8600E0076008803AFF0080307F02031DCD2FE6
:102F960003305F02031CD02FD12F982FD22F013080
:102FA60083120313DD070318DE0A0030DE075E080E
:102FB600803AFF0080307F02031DE32F03305D025D
:102FC600031CE62FE72F832FE82F831203135B08DA
:102FD6005A04031DEF2FF02FF82F6430D600560841
:102FE600DC005C08FF2FFF2FFF2F2030D60056088D
:0A2FF600DC005C08FF2FFF2F08002D
:103AB60064008001840A04060319003404065C2DA0
:103AC600831203138E018F0191018C1010141215AD
:103AD6000800831203138E018F0191018C101014BC
:103AE600121508007C2D0A128A1192230A168A15CD
:103AF6007C2D831203134F08031D822D762D832DF3
:103B0600080001300A168A15C7250A168A150030DC
:103B160083120313D5000030D4000030D3003230B6
:103B2600D2000A168A15DE260A168A1508001830EB
:103B36000A168A15C7250A168A150030831203133A
:103B4600D5000030D4001730D3007030D2000A16EA
:103B56008A15DE260A168A150800FC01FD01831364
:103B66002030840052300A168A155B250A168A15FB
:103B7600A0308400B2300A168A155B250A168A150B
:103B860083010A128A11D52D83120313DA00091054
:103B96005A0886000030D5000030D4000030D3002B
:103BA6003230D2000A168A15DE260A168A150A1639
:103BB6008A154E260A168A15080083120313DA00A0
:103BC60009145A0886000030D5000030D4000030B1
:103BD600D3003230D2000A168A15DE260A168A1556
:103BE6000A168A154E260A168A150800082E0A167F
:103BF6008A1575250A168A15122E0A128A11EE27BB
:103C06000A168A15122E122E122E831203134F082D
:103C1600003A0319FA2D013A0319002E122E080054
:103C26001D2E121110108C130A168A114C250A1615
:103C36008A151D2E831203138C1B222E232E142E5F
:103C4600242E7B08FF007A088A0079088400780809
:103C56008300FE0E7E0E090083120313D5000310A7
:103C6600003003180130D400382E551C3B2E3C2E54
:103C7600412E5208D3005308D407412E0310D20D0B
:103C86000310D50CD508031D492E4A2E382E4B2E6F
:103C960054084D2E08008312031389140030D500F2
:103CA6000030D4000030D3003230D2000A168A1514
:103CB600DE260A168A158312031389100030D500F2
:103CC6000030D4000030D3003230D2000A168A15F4
:103CD600DE260A168A15080083120313DC0010304C
:103CE6005C020318772E782E802E5C08803E0A161A
:103CF6008A15C7250A168A158F2E831203135C08A8
:103D0600EC3EDB005B08DC005C08C03E0A168A1548
:103D1600C7250A168A158F2E0800031000300318CF
:103D2600013083120313D100051085130513871381
:103D36000713871251080A168A157A270A168A1552
:103D46008312031351080A168A1179200A168A1556
:103D56008312031351080A168A11FF200A168A15C0
:103D6600080083120313DC00CB2E5C0884000A12C1
:103D76008A1115200A168A150A168A15E0250A16CA
:103D86008A15013083120313DB005B08DC07CB2E98
:103D96005C08031DCF2EDD2E5C0884000A128A11F2
:103DA60015200A168A150038031DDA2EDB2EB82ECA
:103DB600DD2EDD2E08008312031355085404530428
:103DC6005204031DE72EE82EEA2E0F2F0F2F013087
:103DD600D6000030D7000030D8000030D900560891
:103DE600D2025708031C570FF92EFA2ED302580891
:103DF600031C580FFF2E002FD4025908031C590F1D
:103E0600052F062FD5025508540453045204031DEA
:103E16000D2F0E2FEA2E0F2F08008312031387177C
:103E2600871B162F1A2F8312031307171D2F8312B2
:103E360003130713071B202F242F83120313871640
:103E4600272F8312031387122430DA005A08D10071
:103E5600051405182F2F332F831203138517362FBA
:103E6600831203138513851B392F3D2F83120313EA
:103E76000517402F83120313051351080A168A15D6
:103E86007A270A168A158312031351080A168A110D
:103E960079200A168A158312031351080A168A1105
:103EA600FF200A168A15003083120313D50000304E
:103EB600D4000D30D300AC30D2000A168A15DE26A7
:103EC6000A168A150A168A1590260A168A150030C9
:103ED60083120313D5000030D4000D30D300AC306C
:103EE600D2000A168A15DE260A168A1508008312DB
:103EF6000313D300531C802F812F832F8714842F05
:103F06008710871587115308D20001300310D20C91
:103F1600FF3E031D892F521C912F922F942F871439
:103F2600952F8710871587115308D200023003108A
:103F3600D20CFF3E031D9A2F521CA22FA32FA52F92
:103F46008714A62F8710871587115308D2000330D0
:103F56000310D20CFF3E031DAB2F521CB32FB42F00
:103F6600B62F8714B72F8710871587115308D200ED
:103F760004300310D20CFF3E031DBC2F521CC42F6D
:103F8600C52FC72F8714C82F871087158711530889
:103F9600D20005300310D20CFF3E031DCD2F521C5C
:103FA600D52FD62FD82F8714D92F8710871587118D
:103FB6005308D20006300310D20CFF3E031DDE2F3D
:103FC600521CE62FE72FE92F8714EA2F8710871553
:103FD60087115308D20007300310D20CFF3E031D91
:103FE600EF2F521CF72FF82FFA2F8714FB2F87106D
:0A3FF600871587110716071208004F
:02400E00E43C90
:00000001FF
